:100000000C9434000C9451000C9451000C94510049
:100010000C9451000C9451000C9451000C9451001C
:100020000C9451000C9451000C9451000C9451000C
:100030000C9451000C9451000C9451000C945100FC
:100040000C9451000C9451000C9451000C945100EC
:100050000C9451000C9451000C9451000C945100DC
:100060000C9451000C94510011241FBECFEFD8E026
:10007000DEBFCDBF17E0A0E0B1E0EEE7F0E302C0E5
:1000800005900D92A833B107D9F717E0A8E3B7E0C0
:1000900001C01D92A037B107E1F70E94E1100C9456
:1000A0003D180C9400002D9A88E592E020E931E09B
:1000B000F9013197F1F70197D9F72D988CE291E08A
:1000C00020E931E0F9013197F1F70197D9F7089567
:1000D000382F6330710501F164307105B1F1623080
:1000E000710509F04AC0452B61F024B181E090E030
:1000F00002C0880F991F3A95E2F78095822384B950
:10010000089524B181E090E002C0880F991F3A95CC
:10011000E2F7282B24B90895452B61F027B181E03F
:1001200090E002C0880F991F3A95E2F780958223EC
:1001300087B9089527B181E090E002C0880F991F28
:100140003A95E2F7282B27B90895452B61F02AB19B
:1001500081E090E002C0880F991F3A95E2F7809500
:1001600082238AB908952AB181E090E002C0880F05
:10017000991F3A95E2F7282B2AB90895282F633062
:10018000710551F06430710589F06230710511F02C
:1001900080E0089583B101C086B190E002C09595DA
:1001A00087952A95E2F780958170089589B190E04E
:1001B00002C0959587952A95E2F7809581700895FC
:1001C000382F6330710501F164307105B1F162308F
:1001D000710509F04AC0452B61F425B181E090E03A
:1001E00002C0880F991F3A95E2F78095822385B95E
:1001F000089525B181E090E002C0880F991F3A95DB
:10020000E2F7282B25B90895452B61F428B181E048
:1002100090E002C0880F991F3A95E2F780958223FB
:1002200088B9089528B181E090E002C0880F991F35
:100230003A95E2F7282B28B90895452B61F42BB1A4
:1002400081E090E002C0880F991F3A95E2F780950F
:1002500082238BB908952BB181E090E002C0880F12
:10026000991F3A95E2F7282B2BB90895382F66236A
:1002700061F027B181E090E002C0880F991F3A95A4
:10028000E2F78095822387B9089527B181E090E055
:1002900002C0880F991F3A95E2F7282B27B90895D5
:1002A0004498459884E061E00E94360185E061E071
:1002B0000E9436010895359902C081E0089586B103
:1002C00082958F7080958170089520E030E05AE12A
:1002D00009C02F5F3F4F349902C081E00895452F38
:1002E0004A95F1F728173907A0F380E0089525E132
:1002F00004C0922F9A95F1F784508823D1F708957E
:10030000EF92FF920F931F93CF93DF93082F0E94DA
:100310005B018823E1F784E060E00E943601809170
:100320002E06880F880F25E104C0922F9A95F1F7C9
:1003300084508823D1F785E060E00E9436018091E7
:100340002E06880F880F880F25E104C0922F9A95FA
:10035000F1F784508823D1F785E061E00E943601EF
:1003600080912E06880F880F25E104C0922F9A9560
:10037000F1F784508823D1F711E0C0E0D0E0E02EFF
:10038000FF2405E1C7010C2E02C0959587950A94BC
:10039000E2F780FF07C084E061E00E94360181E05F
:1003A000182704C084E060E00E94360180912E0688
:1003B000880F880F04C0902F9A95F1F784508823F6
:1003C000D1F785E060E00E94360180912E06880F0B
:1003D000880F880F04C0902F9A95F1F784508823D6
:1003E000D1F785E061E00E94360180912E06880FEA
:1003F000880F04C0902F9A95F1F784508823D1F785
:100400002196C830D10509F0BDCF112319F084E041
:1004100061E002C084E060E00E94360180912E0617
:10042000880F880F25E104C0922F9A95F1F7845028
:100430008823D1F785E060E00E94360180912E0686
:10044000880F880F880F25E104C0922F9A95F1F745
:1004500084508823D1F785E061E00E9436018091C5
:100460002E06880F880F25E104C0922F9A95F1F788
:1004700084508823D1F784E061E00E9436018091A6
:100480002E06880F880F25E104C0922F9A95F1F768
:1004900084508823D1F785E060E00E943601809186
:1004A0002E06880F880F880F25E104C0922F9A9599
:1004B000F1F784508823D1F785E061E00E9436018E
:1004C00080912E06880F880F25E104C0922F9A95FF
:1004D000F1F784508823D1F788EC90E00197F1F789
:1004E000DF91CF911F910F91FF90EF900895AF9200
:1004F000BF92CF92DF92EF92FF920F931F93CF9311
:10050000DF935C013499FECF359BFECF80912E06A0
:10051000880F880F25E104C0922F9A95F1F7845037
:100520008823D1F785E060E00E94360180912E0695
:10053000880F880F880F25E104C0922F9A95F1F754
:1005400084508823D1F785E061E00E9436018091D4
:100550002E06880F880F25E104C0922F9A95F1F797
:1005600084508823D1F7FF2411E0C0E0D0E031E0CF
:10057000C32ED12CEE24E39405E1349B09C0C601BF
:100580000C2E02C0880F991F0A94E2F7F82A1E2544
:1005900080912E06880F880F04C0902F9A95F1F74E
:1005A00084508823D1F785E060E00E943601809175
:1005B0002E06880F880F880F04C0902F9A95F1F7A8
:1005C00084508823D1F785E061E00E943601409194
:1005D0002E06842F880F880F04C0902F9A95F1F76C
:1005E00084508823D1F72196C830D10509F0C5CFB2
:1005F00086B190E024E0969587952A95E1F7817081
:100600009070212F30E08217930719F02FEF3FEF02
:100610005DC0942F990F990F25E104C0822F8A9510
:10062000F1F794509923D1F785E060E00E943601FC
:1006300080912E06880F880F880F25E104C0922F25
:100640009A95F1F784508823D1F785E061E00E9404
:10065000360180912E06880F880F25E104C0922F65
:100660009A95F1F784508823D1F784E060E00E94E6
:10067000360180912E06880F880F25E104C0922F45
:100680009A95F1F784508823D1F785E060E00E94C5
:10069000360180912E06880F880F880F25E104C04F
:1006A000922F9A95F1F784508823D1F785E061E085
:1006B0000E94360184E061E00E94360180E991E009
:1006C0000197F1F7F501F08220E030E0C901DF91F8
:1006D000CF911F910F91FF90EF90DF90CF90BF903F
:1006E000AF900895EF92FF921F93CF93DF93C0E0F6
:1006F000D0E040E9E42E41E0F42EC230D10519F0FB
:10070000C430D105B9F48AEF90E0F7013197F1F7E1
:100710000197D9F789E40E9480018AEF90E0F70100
:100720003197F1F70197D9F780EF0E94800189E4B2
:100730000E9480018AEF90E0F7013197F1F701976D
:10074000D9F7FE01E050FF4FE081F0E0E85FFE4F97
:100750001081812F0E9480018AEF90E0F70131978C
:10076000F1F70197D9F780EF0E948001812F0E9455
:1007700080018AEF90E0F7013197F1F70197D9F7FF
:100780002196C830D10509F0B8CF81E08093630786
:1007900080936407DF91CF911F91FF90EF900895B0
:1007A000CF92DF92EF92FF920F931F93CF93DF933D
:1007B000EC018C0161E0E62EF12C50E9C52E51E0F0
:1007C000D52E25C088EE93E0F6013197F1F7019719
:1007D000D9F7F80181810E94800188EE93E0F6014B
:1007E0003197F1F70197D9F780EF0E948001F80166
:1007F00081810E94800188EE93E0F6013197F1F744
:100800000197D9F70894E11CF11C0F5F1F4F8881F5
:10081000E82FF0E0EE15FF05ACF6EC0FFD1F81812F
:1008200080932E068881FE01E80FF11D828180935E
:1008300067078881FE01E80FF11D838180936807B7
:100840008881C80FD11D8C8180936907DF91CF917A
:100850001F910F91FF90EF90DF90CF9008950F932D
:100860001F93CF93DF93259A2D986091290680914D
:10087000270690E070E041E050E00E94680060913F
:1008800029068091270690E070E041E050E00E9448
:10089000E00060912A068091280690E070E041E037
:1008A00050E00E94680060912A068091280690E03E
:1008B00070E041E050E00E94E000CDE0D6E002E1CF
:1008C00016E0F8016081888190E070E041E050E03E
:1008D0000E946800F80161918F01899190E070E0B9
:1008E00041E050E00E94E000F6E0C231DF0749F746
:1008F000C0E0D0E0FE01E95EF94FDE01A15EB94F34
:100900006C91808190E070E041E050E00E946800CE
:100910002196C830D10571F7DF91CF911F910F91CA
:100920000895CF93DF93EC01009729F482E191E0E1
:100930000E94D00318C08130910529F489EB91E021
:100940000E94D00318C08230910529F481E192E021
:100950000E94D00318C08330910529F489E692E003
:100960000E94D00318C0C430D10529F481EC92E074
:100970000E94D00318C0C530D10529F48BE193E063
:100980000E94D00318C0C630D10529F483E793E054
:100990000E94D00318C0C730D10529F482E395E046
:1009A0000E94D00316C0C830D10529F48DEC93E025
:1009B0000E94D00316C0C930D10529F485E294E025
:1009C0000E94D00316C0CA30D10519F48EE794E016
:1009D00005C0CB30D10529F486ED94E00E94D00308
:1009E0000BC0CC30D10529F48CE895E00E94D003EF
:1009F00006C0CC30D10518F482E080932B0681E04C
:100A00008093630780936407109265072D98CE0149
:100A1000DF91CF9108953F924F925F926F927F92B4
:100A20008F929F92AF92BF92CF92DF92EF92FF92FE
:100A30000F931F93482E362E942E822E702E6E2CDE
:100A40005C2C80915507833099F480916C079091CC
:100A50006D07892B79F480EF0E94800180912C062C
:100A60000E948001809162078F5F8093620702C0BD
:100A7000823011F41092550780915E07833099F40B
:100A800080916C0790916D07892B79F480EF0E941B
:100A9000800180912D060E948001809162078F5F06
:100AA0008093620702C0823011F410925E07809139
:100AB0006C0790916D07892B21F010926B071092B3
:100AC0006A0780916207882329F08AE18A95F1F705
:100AD00010926207772071F080912B06823011F41A
:100AE00089E501C086E30E948001809162078F5FE3
:100AF000809362076620A1F080912B06823029F452
:100B000080EE0E94800184E104C080EE0E9480019A
:100B10008DE10E948001809162078F5F8093620760
:100B2000552071F080912B06823011F481E101C0D3
:100B300088E30E948001809162078F5F8093620743
:100B400080916207882329F08AE18A95F1F7109253
:100B50006207882019F080EE0E948001892D0E9492
:100B600080016A2D70E080E090E00E9498155B01A2
:100B70006C012BEA3AEA4AEA50E40E940E137B0128
:100B80008C0120E030E040E85FE30E9414158823E8
:100B900014F461E054C0C801B70120E030E04FE731
:100BA00053E40E94B41418160CF045C0C601B501F8
:100BB00020E030E04AE754E40E9408145B016C0135
:100BC00020E030E04AE755E40E940E137B018C01DF
:100BD00020E030E040E85FE30E94141588231CF415
:100BE00061E070E024C0C801B70120E03FEF4FE7AB
:100BF00057E40E94B4141816B4F4C601B50120E0FD
:100C000030E040E251E40E940E130E94381180E966
:100C100091E005C0FC013197F1F76150704061151A
:100C20007105C1F70EC0C801B7010E943811CB0190
:100C30000197F1F706C0C801B7010E9438116A9503
:100C4000F1F7882019F080EE0E94800180912B0638
:100C5000823019F480EF0E94800180912B0682304F
:100C600011F4892D02C0892D80580E948001842DA5
:100C700090E0FC01EE0FFF1FEE0FFF1FE80FF91FC2
:100C8000E30DF11DE85CF84F1082772061F0809150
:100C90002B06823029F480EF0E94800189E501C093
:100CA00086EB0E948001662091F080912B068230B5
:100CB00041F480EE0E94800180EF0E94800184E177
:100CC00004C080EE0E9480018DE90E9480015520C1
:100CD00061F080912B06823029F480EF0E94800120
:100CE00081E101C088EB0E9480018AE18A95F1F7D9
:100CF00081E080936307809364071F910F91FF90B9
:100D0000EF90DF90CF90BF90AF909F908F907F90AB
:100D10006F905F904F903F9008958F929F92AF9207
:100D2000BF92CF92DF92EF92FF920F931F93982E74
:100D3000862E4130510591F490E0FC01EE0FFF1F2B
:100D4000EE0FFF1FE80FF91FE60FF11DDF01AF5394
:100D5000BE4F1C91E751FE4F008141C0423051050A
:100D600091F490E0FC01EE0FFF1FEE0FFF1FE80F64
:100D7000F91FE60FF11DDF01A75EBD4F1C91EF5B70
:100D8000FD4F008142C04330510591F490E0FC01D9
:100D9000EE0FFF1FEE0FFF1FE80FF91FE60FF11D0B
:100DA000DF01AF58BD4F1C91E756FD4F008143C096
:100DB0004430510591F490E0FC01EE0FFF1FEE0F5F
:100DC000FF1FE80FF91FE60FF11DDF01A553BD4F0F
:100DD0001C91ED50FD4F008144C010E000E0453013
:100DE000510599F4892D90E0FC01EE0FFF1FEE0FE5
:100DF000FF1FE80FF91FE80DF11DDF01AD5DBC4FCE
:100E00001C91E55BFC4F008142C04630510599F4CE
:100E1000892D90E0FC01EE0FFF1FEE0FFF1FE80F82
:100E2000F91FE80DF11DDF01A358BC4F1C91EB55D4
:100E3000FC4F008141C04730510599F4892D90E065
:100E4000FC01EE0FFF1FEE0FFF1FE80FF91FE80D6B
:100E5000F11DDF01A45CBA4F1C91EC59FA4F0081DF
:100E600040C04830510599F4892D90E0FC01EE0F07
:100E7000FF1FEE0FFF1FE80FF91FE80DF11DDF0147
:100E8000AB52BC4F1C91E350FC4F00813FC0493036
:100E9000510591F4892D90E0FC01EE0FFF1FEE0F3C
:100EA000FF1FE80FF91FE80DF11DDF01A25DBB4F29
:100EB0001C91EA5AFB4F3EC04A30510591F4892DEE
:100EC00090E0FC01EE0FFF1FEE0FFF1FE80FF91F70
:100ED000E80DF11DDF01AA57BB4F1C91E255FB4FF6
:100EE00029C04B30510591F4892D90E0FC01EE0FA3
:100EF000FF1FEE0FFF1FE80FF91FE80DF11DDF01C7
:100F0000AE51BB4F1C91E65FFA4F14C04C305105F7
:100F100091F4892D90E0FC01EE0FFF1FEE0FFF1FF3
:100F2000E80FF91FE80DF11DDF01AB56BA4F1C9118
:100F3000E354FA4F0081002349F080912B06823060
:100F400011F489E501C086E30E948001812F0E948F
:100F5000800188EC90E00197F1F780912B068230B8
:100F600029F480EF0E948001812F02C0812F8058D8
:100F70000E948001002361F080912B06823029F4C9
:100F800080EF0E94800189E501C086EB0E9480010C
:100F90006091670770E080E090E00E9498155B0127
:100FA0006C0120E030E04AE755E40E940E137B011B
:100FB0008C0120E030E040E85FE30E9414158823B4
:100FC0001CF461E070E024C0C801B70120E03FEFED
:100FD0004FE757E40E94B4141816B4F4C601B501E3
:100FE00020E030E040E251E40E940E130E943811EC
:100FF00080E991E005C0FC013197F1F76150704044
:1010000061157105C1F707C0C801B7010E94381109
:10101000CB010197F1F7892D90E0FC01EE0FFF1F46
:10102000EE0FFF1FE80FF91FE80DF11DE85CF84F08
:1010300010821F910F91FF90EF90DF90CF90BF90A3
:10104000AF909F908F9008958F929F92AF92BF9292
:10105000CF92DF92EF92FF920F931F93CF93DF9384
:10106000982E862E142F80912B06442309F05DC004
:10107000823011F489E501C086E30E9480018091ED
:101080002B06082D10E0C92DD0E0823061F4FE015E
:10109000EE0FFF1FEE0FFF1FEC0FFD1FE00FF11F04
:1010A000E75EFE4F0BC0FE01EE0FFF1FEE0FFF1FAE
:1010B000EC0FFD1FE00FF11FE759FE4F80810E94EA
:1010C00080018AE18A95F1F780912B06082D10E0C6
:1010D000C92DD0E08230B1F480EF0E948001FE0182
:1010E000EE0FFF1FEE0FFF1FEC0FFD1FE00FF11FB4
:1010F000E75EFE4F80810E94800180EF0E948001A8
:1011000089E510C0FE01EE0FFF1FEE0FFF1FEC0F71
:10111000FD1FE00FF11FE759FE4F808180580E94AC
:10112000800186EB0E94800153C0823069F44B3607
:1011300031F0443721F0453711F0423729F480EE81
:101140000E94800101E001C000E080912B06813007
:1011500061F41B3431F01D3421F0183411F01035D6
:1011600021F480EE0E94800101E0812F0E94800125
:101170008AE18A95F1F780912B06823059F41B366B
:1011800031F0143721F0153711F0123719F480EED1
:101190000E94800180912B06813059F41B3431F07C
:1011A0001D3421F0183411F0103519F480EE0E942E
:1011B000800180912B06823029F480EF0E9480010B
:1011C000812F02C0812F80580E9480010023D9F511
:1011D0006091670770E080E090E00E9498155B01E5
:1011E0006C0120E030E04AE755E40E940E137B01D9
:1011F0008C0120E030E040E85FE30E941415882372
:101200000CF43DC0C801B70120E03FEF4FE757E4C1
:101210000E94B41418160CF055C0C601B50120E0A8
:1012200030E040E251E40E940E130E94381180E940
:1012300091E005C0FC013197F1F7615070406115F4
:101240007105C1F746C060916807662309F441C083
:1012500070E080E090E00E9498155B016C0120E056
:1012600030E04AE755E40E940E137B018C0120E038
:1012700030E040E85FE30E94141588231CF461E02D
:1012800070E024C0C801B70120E03FEF4FE757E40A
:101290000E94B4141816B4F4C601B50120E030E081
:1012A00040E251E40E940E130E94381180E991E05F
:1012B00005C0FC013197F1F761507040611571056F
:1012C000C1F707C0C801B7010E943811CB010197CF
:1012D000F1F7892D90E0FC01EE0FFF1FEE0FFF1FCD
:1012E000E80FF91FE80DF11DE85CF84F1082DF915F
:1012F000CF911F910F91FF90EF90DF90CF90BF9013
:10130000AF909F908F9008952F923F924F925F924F
:101310006F927F928F929F92AF92BF92CF92DF9205
:10132000EF92FF920F931F93DF93CF9300D00F9212
:10133000CDB7DEB71092630707E216E049E2A42EAC
:1013400046E0B42EFF2435E3C32E2AE1E22EDD244D
:10135000D394F5016081F801808190E070E00E94F3
:10136000BE00882309F439C08C2D8A95F1F7F50168
:101370006081F801808190E070E00E94BE008823C7
:1013800061F1FF2009F0FCC680EE0E94800184E13B
:101390000E94800181E10E94800183E00E9480011F
:1013A0008E2D8A95F1F780EF0E94800183E00E94E4
:1013B000800180EE0E94800180EF0E94800184E124
:1013C0000E94800180EF0E94800181E10E948001E3
:1013D0008E2D8A95F1F7D0926307F3940F5F1F4F1C
:1013E0000894A11CB11CF2E0FF1609F0B2CF809165
:1013F0006307882309F08EC097E1892E96E0992E25
:101400008FE1A82E86E0B82ECC24DD240AE1302E10
:101410007724739415E3412EB2E05B2EA3E06A2E8D
:10142000F5016081F401808190E070E040E050E0DF
:101430000E946800F5016081F401808190E070E015
:1014400040E050E00E94E000832D8A95F1F70DE026
:1014500016E0F2E1EF2EF6E0FF2E9601220F331F89
:10146000220F331F2C0D3D1D285C384F3B832A83F0
:10147000F7016081F801808190E070E00E94BE0079
:101480008823F9F0842D8A95F1F7F7016081F8013E
:10149000808190E070E00E94BE00EA81FB81908133
:1014A000882351F0923009F46082EA81FB818081C7
:1014B000882361F450820AC0992341F0EA81FB81BC
:1014C00004C0EA81FB818081811170820F5F1F4F10
:1014D0000894E11CF11C2A813B812F5F3F4F3B8325
:1014E0002A8336E00231130709F0C2CFF50161917A
:1014F0005F01F40181914F0190E070E041E050E024
:101500000E9468000894C11CD11CF8E0CF16D104D9
:1015100009F086CF80916507882309F49CC08091EB
:101520006E07882321F110926E074DE357E090E09B
:1015300020E030E010C08081823008F091E03196E8
:10154000E417F507C1F72F5F3F4FAF014B5F5F4FC8
:101550002830310551F0F901EE0FFF1FEE0FFF1F8C
:10156000E20FF31FE85CF84FE6CF90936E0780918F
:101570006E07882309F068C080915507813079F49F
:1015800080916C0790916D07892B49F480EF0E9440
:10159000800180912C060E94800110925507809155
:1015A0005E07813079F480916C0790916D07892BEB
:1015B00049F480EF0E94800180912D060E948001F5
:1015C00010925E0780916C0790916D07892B21F036
:1015D00010926B0710926A076DE3C62E67E0D62E55
:1015E000EE24FF2420C0F5018081823048F0F8010C
:1015F000808190E00E94910490936D0780936C0726
:101600000894A11CB11C0F5F1F4FAC14BD0459F707
:101610000894E11CF11C25E030E0C20ED31E38E036
:10162000E316F10489F0C701880F991F880F991FED
:101630008E0D9F1D48E3A42E47E0B42EA80EB91EC0
:101640008C010B511A4FCFCF80916507882319F079
:1016500081E08093630780916307882309F0A1C22A
:1016600080915507823008F49CC280915E078230D9
:1016700008F497C280916407882309F094C280918E
:101680002B06823009F0B3C180914D07823008F4F7
:101690003EC081E0809365078093630780936E0767
:1016A0002D9A88EE93E020E931E0F9013197F1F7C6
:1016B0000197D9F789E20E94800188EE93E020E942
:1016C00031E0F9013197F1F70197D9F780EF0E94E6
:1016D000800189E20E94800188EE93E020E931E0F8
:1016E000F9013197F1F70197D9F789E40E94800158
:1016F00088EE93E020E931E0F9013197F1F70197A5
:10170000D9F780EF0E94800189E40E9480018091D6
:101710003C07823058F080E064E045E020E000E0E3
:10172000EE24CC2435E0A32E0E940B0580913B07CC
:10173000823058F080E063E046E020E000E0EE24F4
:10174000CC2495E0A92E0E940B0580913A078230A7
:1017500058F080E062E044E020E000E0EE24CC2499
:1017600015E0A12E0E940B0580913907823058F0B8
:1017700080E061E04CE020E000E0EE24CC24B5E025
:10178000AB2E0E940B0580913807823058F080E024
:1017900060E043E020E000E0EE24CC24A5E0AA2EA7
:1017A0000E940B0580914707823058F083E060E08B
:1017B0004BE020E000E0EE24CC24F5E0AF2E0E94C8
:1017C0000B0580914807823058F083E061E043E8E0
:1017D00020E000E0EE24CC24E5E0AE2E0E940B05D4
:1017E00080914907823058F083E062E04AE020E0CF
:1017F00000E0EE24CC2475E0A72E0E940B0580911A
:101800004A07823058F083E063E041E020E000E0E6
:10181000EE24CC2455E0A52E0E940B0580914B07A9
:10182000823058F083E064E049E020E000E0EE24FC
:10183000CC2435E0A32E0E940B0580914107823015
:1018400088F080916C0790916D07892B59F081E0A9
:1018500064E048E720E000E0EE24CC2492E3A92EE7
:101860000E940B0580914007823088F080916C07C0
:1018700090916D07892B59F081E063E047E020E00B
:1018800000E0EE24CC2412E3A12E0E940B058091EF
:101890004607823058F082E064E049E020E000E052
:1018A000EE24CC24B5E0AB2E0E940B0580914C07B2
:1018B000823068F084E060E043E020E000E0EE2465
:1018C000E394CC24C394A5E0AA2E0E940B0580913A
:1018D0005B07823068F087E060E046E620E000E0E9
:1018E000EE24E394CC24C394F5E0AF2E0E940B05C4
:1018F00080915C07823068F087E061E041E720E09A
:1019000000E0EE24E394CC24C394E5E0AE2E0E94E4
:101910000B0580914207823058F082E060E04EE78C
:1019200020E000E0EE24CC2475E0A72E0E940B05F9
:1019300080915107823040F080916C0790916D0743
:10194000892B11F00E94720380913F07823088F04A
:1019500080916C0790916D07892B59F081E062E0CE
:101960004DE721E000E0EE24CC2455E0A52E0E94B6
:101970000B0580913E07823088F080916C07909132
:101980006D07892B59F081E061E04AE721E000E032
:10199000EE24CC2435E0A32E0E940B058091440751
:1019A000823088F080916C0790916D07892B59F0F7
:1019B00082E062E04DE721E001E0EE24CC2495E0F6
:1019C000A92E0E940B0580914307823008F4EBC0DA
:1019D00080916C0790916D07892B09F4E4C082E037
:1019E00061E04AE721E001E0EE24CC24D5C081305B
:1019F00009F0D9C080913C07823058F080E064E063
:101A00004BE320E000E0EE24CC2415E0A12E0E9460
:101A10000B0580913B07823058F080E063E04CE397
:101A200020E000E0EE24CC24B5E0AB2E0E940B05B4
:101A300080913A07823058F080E062E04DE320E088
:101A400000E0EE24CC24A5E0AA2E0E940B05809194
:101A50003907823058F080E061E04EE320E000E09A
:101A6000EE24CC24F5E0AF2E0E940B0580913807C0
:101A7000823058F080E060E04FE320E000E0EE24A8
:101A8000CC24E5E0AE2E0E940B0580914707823002
:101A900058F083E060E040E420E000E0EE24CC2455
:101AA00075E0A72E0E940B0580914807823058F000
:101AB00083E061E041E420E000E0EE24CC2455E046
:101AC000A52E0E940B0580914907823058F083E0D3
:101AD00062E042E420E000E0EE24CC2435E0A32ED6
:101AE0000E940B0580914A07823058F083E063E042
:101AF00043E420E000E0EE24CC2495E0A92E0E94EF
:101B00000B0580914B07823058F083E064E044E499
:101B100020E000E0EE24CC2415E0A12E0E940B056D
:101B200080914107823058F081E064E047E520E091
:101B300000E0EE24CC24B5E0AB2E0E940B05809192
:101B40004007823058F081E063E048E520E000E0A3
:101B5000EE24CC24A5E0AA2E0E940B0580915B0701
:101B6000823068F087E060E04EE020E000E0EE24A4
:101B7000E394CC24C394F5E0AF2E0E940B05809132
:101B80005C07823080F087E061E043E520E000E020
:101B9000EE24E394CC24C394E5E0AE2E0E940B0522
:101BA00002C01092640780916307882309F0F3C292
:101BB00080916C0790916D07892B09F08EC0809100
:101BC0005507823061F480912C060E94800183E0E9
:101BD00080935507809162078F5F809362078091A1
:101BE0005E07823061F480912D060E94800183E0BF
:101BF00080935E07809162078F5F80936207809178
:101C00005507813071F480EF0E94800180912C068D
:101C10000E94800110925507809162078F5F809328
:101C2000620780915E07813071F480EF0E9480012D
:101C300080912D060E94800110925E0780916207BC
:101C40008F5F8093620780916207882329F08AE181
:101C50008A95F1F7109262077DE3C72E77E0D72EC1
:101C6000EE24FF2429C0F5018081823021F4F8019F
:101C700080810E948001F5018081813049F480EFEC
:101C80000E948001F80180810E948001F50110828C
:101C90000894A11CB11C0F5F1F4FAC14BD0419F7B1
:101CA0000894E11CF11C25E030E0C20ED31E38E0A0
:101CB000E316F10409F46FC2C701880F991F880F5A
:101CC000991F8E0D9F1D58E3A52E57E0B52EA80E27
:101CD000B91E8C01075E1E4FC6CF8091550782301A
:101CE00029F480936B0784E08093550780915E0709
:101CF000823029F480936A0784E080935E078091A4
:101D00005507813021F480936B071092550780911D
:101D10005E07813021F480936A0710925E078091FC
:101D20006A07882341F080916B07882321F0109285
:101D30006B0710926A0780916B07882309F065C1D1
:101D400080916A07882309F060C14DE3242E47E0A3
:101D5000342E8824992440C1EA81FB81808182301D
:101D600009F089C080912B06823009F03EC0F30152
:101D700080810E9480016091690770E080E090E0BE
:101D80000E9498155B016C0120E030E04AE755E4C1
:101D90000E940E137B018C0120E030E040E85FE3FD
:101DA0000E94141588230CF43DC0C801B70120E03F
:101DB0003FEF4FE757E40E94B41418160CF054C0DC
:101DC000C601B50120E030E040E251E40E940E136C
:101DD0000E94381106C080E991E00197F1F7615047
:101DE000704061157105B9F746C0F20180810E940B
:101DF00080016091690770E080E090E00E94981592
:101E00005B016C0120E030E04AE755E40E940E13CC
:101E10007B018C0120E030E040E85FE30E94141574
:101E200088231CF461E070E023C0C801B70120E002
:101E30003FEF4FE757E40E94B4141816ACF4C60104
:101E4000B50120E030E040E251E40E940E130E9410
:101E5000381106C080E991E00197F1F761507040B8
:101E600061157105B9F707C0C801B7010E943811A3
:101E7000CB010197F1F7EA81FB818081813009F084
:101E800090C080912B06823009F041C080EF0E9403
:101E90008001F30180810E9480016091690770E0F8
:101EA00080E090E00E9498155B016C0120E030E03A
:101EB0004AE755E40E940E137B018C0120E030E0DC
:101EC00040E85FE30E94141588230CF43EC0C8016B
:101ED000B70120E03FEF4FE757E40E94B414181613
:101EE0000CF055C0C601B50120E030E040E251E4FD
:101EF0000E940E130E94381106C080E991E00197FC
:101F0000F1F76150704061157105B9F747C0F201F2
:101F1000808180580E9480016091690770E080E0B4
:101F200090E00E9498155B016C0120E030E04AE7E8
:101F300055E40E940E137B018C0120E030E040E864
:101F40005FE30E94141588231CF461E070E023C055
:101F5000C801B70120E03FEF4FE757E40E94B414F7
:101F60001816ACF4C601B50120E030E040E251E4BF
:101F70000E940E130E94381106C080E991E001977B
:101F8000F1F76150704061157105B9F707C0C801DC
:101F9000B7010E943811CB010197F1F7EA81FB816B
:101FA00010822A813B812F5F3F4F3B832A83089415
:101FB000411C511C0894611C711C2215330509F049
:101FC000CBCE0894811C911C85E090E0280E391E30
:101FD00098E089169104C9F0C401880F991F880FF1
:101FE000991F880D991DFC01E85CF84FFB83EA837B
:101FF00029E6422E21E0522E480E591E09E1602E9C
:1020000001E0702E680E791EA7CE60916B076230DA
:1020100021F080916A07823081F54DE357E091E02D
:1020200020E030E010C08081833009F490E03196E8
:10203000E417F507C1F72F5F3F4FAF014B5F5F4FCD
:102040002830310551F0F901EE0FFF1FEE0FFF1F91
:10205000E20FF31FE85CF84FE6CF623029F49923D2
:1020600019F083E080936B0780916A07823029F42E
:10207000992319F083E080936A0780916A0783307F
:1020800059F500E010E01AC0F601808182508230DC
:1020900050F440916C0750916D078F2D692F9983F3
:1020A0000E948D0699819F5F0894C11CD11C9530B8
:1020B00059F70F5F1F4F0830110571F0F02E6801BE
:1020C000CC0CDD1CCC0CDD1CC00ED11E28E337E08F
:1020D000C20ED31E90E0D8CF80916B07833009F0F9
:1020E00042C08824992426C0F60180818250823023
:1020F00070F480912B06823021F48A2D6B2DF7012C
:1021000003C08A2D6B2DF80140810E942408B394EE
:102110000894C11CD11C0894E11CF11C0F5F1F4FD7
:10212000F5E0BF1609F70894811C911C28E082167F
:102130009104C9F0A82CC401880F991F880F991F1A
:10214000880D991DF8E3CF2EF7E0DF2EC80ED91EBB
:10215000E1E4EE2EE1E0FE2EE80EF91E8C010F56B2
:102160001E4FBB24C1CF80916A07813011F41092B9
:102170006A0780916B07813071F410926B070BC076
:102180008EE70E9480018E2D8A95F1F780EF0E94E4
:1021900080018EE71BC90F900F900F90CF91DF91B8
:1021A0001F910F91FF90EF90DF90CF90BF90AF9075
:1021B0009F908F907F906F905F904F903F902F9067
:1021C000089580E880936100109261000E942F04BE
:1021D0000E9450010E945B01882309F446C080914F
:1021E0006C0790916D070C9709F03FC037C0809144
:1021F000660780936F0786E697E00E947702892B37
:1022000069F5809166078E3E09F08AEF0E94800191
:1022100090916607923099F0933028F4992341F019
:102220009130E1F40CC0923F89F09F3FB9F413C0A4
:1022300080916F07803F91F480912B060DC08091B3
:102240006F07803F59F490932B0608C08BEA0E94D9
:10225000800183E801C08AEA0E94800188EE93E051
:102260000E946501882319F6B5CF0E948409B2CF78
:10227000EF92FF920F931F937B018C0120E030E0DF
:1022800040E05FE40E94E41488238CF0C801B701A9
:1022900020E030E040E05FE40E94B0120E9444156C
:1022A0009B01AC01205030404040504806C0C8015E
:1022B000B7010E9444159B01AC01B901CA011F91ED
:1022C0000F91FF90EF900895A0E0B0E0EAE6F1E111
:1022D0000C940618DC012B01FA019C91923008F451
:1022E00039C1EB018881823008F433C1943069F43C
:1022F000843009F02FC111969C911197898198170C
:1023000009F428C1AFE2B6E025C1843009F421C147
:102310008230A9F4923009F01DC19A01AD0188E024
:10232000EA010990AE01E90109929E018150C1F7CD
:10233000E201898111969C918923818308C19230A1
:1023400009F407C112962D903C901397EB018A81F6
:102350009B811496AD90BD90CD90DC901797EC804A
:10236000FD800E811F819101281B390BB90137FFB8
:1023700004C066277727621B730B603271050CF06F
:1023800061C0121613066CF537014801062E04C011
:1023900096948794779467940A94D2F721E030E07A
:1023A00040E050E004C0220F331F441F551F6A95C0
:1023B000D2F721503040404050402E213F21402351
:1023C0005123211531054105510521F021E030E06F
:1023D00040E050E079018A01E628F7280829192908
:1023E0003CC0232BD1F1260E371E35014601062EA7
:1023F00004C096948794779467940A94D2F721E066
:1024000030E040E050E004C0220F331F441F551F4E
:102410006A95D2F721503040404050402A213B215C
:102420004C215D21211531054105510521F021E0A7
:1024300030E040E050E059016A01A628B728C828DA
:10244000D9280BC0821593052CF01C01AA24BB24AB
:10245000650103C0EE24FF24870111969C91D201EF
:1024600011968C91981709F445C0992339F0A80169
:1024700097012A193B094C095D0906C0A60195017F
:102480002E193F09400B510B57FD08C011823382B2
:10249000228224833583468357831DC081E0818354
:1024A0003382228288279927DC01821B930BA40B9D
:1024B000B50B84839583A683B7830DC0220F331F8A
:1024C000441F551F2483358346835783828193811C
:1024D0000197938382832481358146815781DA0174
:1024E000C9010197A109B1098F5F9F4FAF4FBF434A
:1024F00028F30BC0918333822282EA0CFB1C0C1D53
:102500001D1DE482F5820683178383E08083248186
:1025100035814681578157FF1AC0C901AA2797FD07
:10252000A095BA2F81709070A070B07056954795A5
:1025300037952795822B932BA42BB52B84839583DA
:10254000A683B78382819381019693838283DF017F
:1025500001C0D201CD01CDB7DEB7E2E10C94221863
:10256000A0E2B0E0E6EBF2E10C94121869837A8302
:102570008B839C832D833E834F835887E9E0EE2E27
:10258000F12CEC0EFD1ECE010196B7010E9435170D
:102590008E010F5E1F4FCE010596B8010E943517C0
:1025A0008A8991E089278A8BC701B801AE01475E0D
:1025B0005F4F0E9464110E946016A096E6E00C94A2
:1025C0002E18A0E2B0E0E7EEF2E10C941218698355
:1025D0007A838B839C832D833E834F835887F9E0D6
:1025E000EF2EF12CEC0EFD1ECE010196B7010E94DC
:1025F00035178E010F5E1F4FCE010596B8010E9460
:102600003517C701B801AE01475E5F4F0E946411E4
:102610000E946016A096E6E00C942E18A0E2B0E0AE
:10262000E4E1F3E10C94061869837A838B839C833D
:102630002D833E834F835887CE010196BE01675F8D
:102640007F4F0E943517CE010596BE016F5E7F4F0A
:102650000E9435179985923088F089898230C8F0B8
:10266000943019F4823051F404C0843029F492304B
:1026700081F48FE296E0C6C0923049F420E09A855A
:102680008A89981321E02A87CE010996BBC082303F
:1026900049F420E09A858A89981321E02A8BCE019B
:1026A0004196B0C02D843E844F8458886D887E88C2
:1026B0008F88988CEE24FF248701AA24BB2465010F
:1026C00040E050E060E070E0E0E0F0E0C1018170E7
:1026D0009070892BE9F0E60CF71C081D191D9A0172
:1026E000AB012A0D3B1D4C1D5D1D80E090E0A0E07C
:1026F000B0E0E614F7040805190520F481E090E045
:10270000A0E0B0E0BA01A901480F591F6A1F7B1F62
:10271000AA0CBB1CCC1CDD1C97FE08C081E090E01D
:10272000A0E0B0E0A82AB92ACA2ADB2A3196E03212
:10273000F10549F0660C771C881C991C5694479447
:1027400037942794C3CFFA85EA892B893C898B85F6
:102750009C85280F391F2E5F3F4F17C0CA0181701B
:102760009070892B61F016950795F794E79480E0B7
:1027700090E0A0E0B0E8E82AF92A0A2B1B2B769516
:102780006795579547952F5F3F4F77FDE7CF0CC073
:10279000440F551F661F771F17FD4160EE0CFF1C8D
:1027A000001F111F21503040403090E0590790E049
:1027B000690790E4790760F32B8F3C8FDB01CA0136
:1027C0008F779070A070B07080349105A105B1052D
:1027D00061F447FD0AC0E114F1040105110529F077
:1027E000405C5F4F6F4F7F4F40781A8EFE1711F09D
:1027F00081E08A8F4D8F5E8F6F8F78A383E0898F02
:10280000CE0149960E946016A096E2E10C9422182F
:10281000A8E1B0E0EEE0F4E10C940E1869837A834D
:102820008B839C832D833E834F835887B9E0EB2EA7
:10283000F12CEC0EFD1ECE010196B7010E9435175A
:102840008E010F5E1F4FCE010596B8010E9435170D
:102850002985223008F47EC03989323010F4B8015D
:102860007CC08A859A8989278A87243011F0223092
:1028700031F4231709F06EC06FE276E06EC0343099
:1028800039F41D861E861F86188A1C861B8604C086
:10289000323021F484E08987B7015FC02B853C8505
:1028A0008B899C89281B390B3C872B87ED84FE8400
:1028B0000F851889AD88BE88CF88D88CEA14FB04B0
:1028C0000C051D0540F4EE0CFF1C001F111F2150CC
:1028D00030403C872B8720E030E040E050E080E053
:1028E00090E0A0E0B0E460E070E0EA14FB040C05C6
:1028F0001D0540F0282B392B4A2B5B2BEA18FB08CF
:102900000C091D09B695A79597958795EE0CFF1CA8
:10291000001F111F6F5F7F4F6F31710531F7DA01B3
:10292000C9018F779070A070B07080349105A105B7
:10293000B10561F427FD0AC0E114F1040105110598
:1029400029F0205C3F4F4F4F5F4F20782D873E8707
:102950004F87588BBE01675F7F4FCB010E94601687
:102960006896EAE00C942A18A8E1B0E0EAEBF4E1FA
:102970000C94121869837A838B839C832D833E8306
:102980004F83588789E0E82EF12CEC0EFD1ECE0116
:102990000196B7010E9435178E010F5E1F4FCE01C1
:1029A0000596B8010E9435178985823040F08989E3
:1029B000823028F0C701B8010E94AD1701C08FEF27
:1029C0006896E6E00C942E18A8E1B0E0EAEEF4E197
:1029D0000C94121869837A838B839C832D833E83A6
:1029E0004F83588789E0E82EF12CEC0EFD1ECE01B6
:1029F0000196B7010E9435178E010F5E1F4FCE0161
:102A00000596B8010E9435178985823040F0898982
:102A1000823028F0C701B8010E94AD1701C08FEFC6
:102A20006896E6E00C942E18A8E1B0E0EAE1F5E142
:102A30000C94121869837A838B839C832D833E8345
:102A40004F83588789E0E82EF12CEC0EFD1ECE0155
:102A50000196B7010E9435178E010F5E1F4FCE0100
:102A60000596B8010E9435178985823040F0898922
:102A7000823028F0C701B8010E94AD1701C081E083
:102A80006896E6E00C942E18ACE0B0E0EAE4F5E1DC
:102A90000C94161869837A838B839C83CE010196EC
:102AA000BE016B5F7F4F0E9435178D81823061F1CF
:102AB000823050F1843021F48E81882351F12EC070
:102AC0002F81388537FD20C06E812F3131051CF0F4
:102AD0006623F9F023C08EE190E0821B930B2985D9
:102AE0003A854B855C8504C0569547953795279563
:102AF0008A95D2F76623B1F050954095309521958F
:102B00003F4F4F4F5F4F0EC020E030E040E050E0BD
:102B100009C02FEF3FEF4FEF5FE704C020E030E048
:102B200040E050E8B901CA012C96E2E00C9432185A
:102B3000A8E0B0E0EEE9F5E10C940E187B018C0101
:102B4000611571058105910519F482E0898360C0E2
:102B500083E089838EE1C82ED12CDC82CB82ED828A
:102B6000FE820F831887C801B7010E941116FC016D
:102B70003197F7FF3BC0222733272E1B3F0B57010E
:102B80006801022E04C0D694C794B794A7940A94FF
:102B9000D2F740E050E060E070E081E090E0A0E03B
:102BA000B0E004C0880F991FAA1FBB1F2A95D2F757
:102BB0000197A109B1098E219F21A023B12300977C
:102BC000A105B10521F041E050E060E070E04A2944
:102BD0005B296C297D294D835E836F8378878EE125
:102BE00090E08E1B9F0B9C838B8312C0309781F0EB
:102BF0000E2E04C0EE0CFF1C001F111F0A94D2F70A
:102C0000ED82FE820F831887CE1ADF0ADC82CB8228
:102C10001A82CE0101960E9460162896EAE00C9472
:102C20002A18EF92FF920F931F937B018C0180E093
:102C3000E81680E0F80681E0080780E0180788F4CD
:102C40008FEFE816F1040105110531F028F088E056
:102C500090E0A0E0B0E017C080E090E0A0E0B0E03D
:102C600012C080E0E81680E0F80680E0080781E006
:102C7000180728F088E190E0A0E0B0E004C080E10F
:102C800090E0A0E0B0E020E230E040E050E0281B1F
:102C9000390B4A0B5B0B04C016950795F794E79424
:102CA0008A95D2F7F701E95CF94F8081281B310939
:102CB00041095109C9011F910F91FF90EF900895AB
:102CC000DF92EF92FF920F931F93FC01E480F58057
:102CD00006811781D1808081823048F480E090E0C5
:102CE000A0E1B0E0E82AF92A0A2B1B2BA5C084300A
:102CF00009F49FC0823021F4EE24FF24870105C02F
:102D0000E114F1040105110519F4E0E0F0E096C0CA
:102D1000628173819FEF623879070CF05BC022E813
:102D20003FEF261B370B2A3131052CF020E030E035
:102D300040E050E02AC0B801A701022E04C07695F9
:102D40006795579547950A94D2F781E090E0A0E007
:102D5000B0E004C0880F991FAA1FBB1F2A95D2F7A5
:102D60000197A109B1098E219F21A023B1230097CA
:102D7000A105B10521F081E090E0A0E0B0E09A016A
:102D8000AB01282B392B4A2B5B2BDA01C9018F773A
:102D90009070A070B07080349105A105B10539F430
:102DA00027FF09C0205C3F4F4F4F5F4F04C0215C9D
:102DB0003F4F4F4F5F4FE0E0F0E02030A0E03A0798
:102DC000A0E04A07A0E45A0710F0E1E0F0E0790142
:102DD0008A0127C06038710564F5FB01E158FF4F97
:102DE000D801C7018F779070A070B07080349105C2
:102DF000A105B10539F4E7FE0DC080E490E0A0E044
:102E0000B0E004C08FE390E0A0E0B0E0E80EF91E6F
:102E10000A1F1B1F17FF05C016950795F794E79427
:102E2000319687E016950795F794E7948A95D1F740
:102E300005C0EE24FF248701EFEFF0E06E2F6795C9
:102E400066276795902F9F77D794DD24D7948E2F90
:102E50008695492F462B582F5D29B701CA011F912E
:102E60000F91FF90EF90DF900895FC01DB0140810E
:102E700051812281622F6F7770E0221F2227221F4B
:102E80009381892F880F822B282F30E0991F992753
:102E9000991F11969C93119721153105A9F541159C
:102EA00051056105710511F482E037C082E89FEF9A
:102EB00013969C938E9312979A01AB0167E0220FB1
:102EC000331F441F551F6A95D1F783E08C930DC0C3
:102ED000220F331F441F551F12968D919C911397FB
:102EE000019713969C938E931297203080E03807B9
:102EF00080E0480780E4580758F314962D933D93DB
:102F00004D935C93179708952F3F310579F4411540
:102F100051056105710519F484E08C93089564FFEF
:102F200003C081E08C9312C01C9210C02F57304018
:102F300013963C932E93129783E08C9387E0440F73
:102F4000551F661F771F8A95D1F7706414964D93AD
:102F50005D936D937C93179708951F93DC01FB019C
:102F60009C91923008F447C08081823008F443C0BD
:102F7000943051F411961C91843099F58181682F19
:102F800070E0611B71093FC0843021F0923031F450
:102F90008230B9F18181882389F12DC011961C916D
:102FA00011978230F1F081811817D9F412962D9182
:102FB0003C911397828193818217930794F028178D
:102FC0003907BCF014968D919D910D90BC91A02D68
:102FD0002481358146815781281739074A075B07C5
:102FE00018F4112341F00AC082179307A407B5070C
:102FF00040F4112319F061E070E005C06FEF7FEF3E
:1030000002C060E070E0CB011F9108952F923F92C3
:103010004F925F926F927F928F929F92AF92BF92E8
:10302000CF92DF92EF92FF920F931F93CF93DF9394
:10303000CDB7DEB7CA1BDB0B0FB6F894DEBF0FBEF1
:10304000CDBF09942A88398848885F846E847D843E
:103050008C849B84AA84B984C884DF80EE80FD8040
:103060000C811B81AA81B981CE0FD11D0FB6F894B6
:0E307000DEBF0FBECDBFED010895F894FFCF77
:10307E00020500070200010745161E26252E363DC5
:10308E003E46021A22010000002E25261E162C2D69
:10309E00241D15342B231B1C363D3E4645353C4323
:1030AE00444D2A21221A00333B424B5A32313A0008
:1030BE00296B000058060000000000000000000010
:1030CE007275740066000000000000000000000031
:1030DE000000000D00000000760605040302141324
:1030EE001211102221201F1E0708090A0B15161790
:1030FE0018192F2E2D2C00232425261C303132009A
:10310E00394B00003A3C00000000000000000000B7
:10311E0050484D000E0000000000000000000000AE
:10312E000000000F000000000103214D21041900D2
:10313E00002E2526541649410000005D5B61546146
:10314E00363D3E46455B5D00521E4A4A554C005583
:10315E004E524E004C414900000101010001010197
:10316E000000000101000101010101010100000048
:10317E00000100010100000000010100010000003B
:10318E0000033A1B22040A00002E2526521649413E
:10319E00000000540E5D5D5B524C4500551E540000
:1031AE004C3E4A4A0055003D4E0E360046414900FF
:1031BE0000010101010101010000000100000101F7
:1031CE0000010100000100000001000100010001EA
:1031DE000001010001000000000321362504190042
:1031EE00002E2526541641610000000000004E00FE
:1031FE00363D3E46454C5200521E4A4A004C005D3A
:10320E004E0955005B614100000101010001010101
:10321E000000000000000100010101010101010098
:10322E00000100010000000000000000000000008E
:10323E0000051C2C1C2D43041900002E25263E16BD
:10324E00554E0007780000525B00363D464554410E
:10325E0049004C1E4A4A004C005D54525B005D41D1
:10326E004900000101010101000000000000000101
:10327E000100010101010101010000010001000135
:10328E0000010000000000000000000332322104A3
:10329E001900002E25260E164941000707000000D2
:1032AE00614E363D3E46450000004C1E4A4A5D5278
:1032BE0000555D4C4E0052414900000101010001D4
:1032CE0001010000010000000100010101010100E7
:1032DE0000000001000101000000000101000100DA
:1032EE00000000051C21442D31041900002E252656
:1032FE004516494100000000005D0000363D3E4687
:10330E005B545B004C1E4A4A545200004E4C4E0019
:10331E0052414900000101010101010100000000BC
:10332E000000000001010101010000000001000188
:10333E0001000000000101000100000000032A430B
:10334E0021041900002E25265416416100000000AC
:10335E0000005500363D3E46454C5200521E4A4A2C
:10336E00004C0000554E5D005B6141000001010103
:10337E000001010100000000000001000101010137
:10338E00010101000001000100000000000000002A
:10339E00000000000004442D4321041900002E25D6
:1033AE00261E1649410000005B545D5D003D5246ED
:1033BE004500545B004C524A4A4E4C00364E555511
:1033CE00003E414900000101010101010100000020
:1033DE0001010001000100010100000000000100D8
:1033EE000101010001000100000100000000031BAB
:1033FE001C3A041900002E25265D1661610000009E
:10340E005D5200004C364E3E464A000000411E3DC5
:10341E004E544900544A5B45005B4149000001018E
:10342E000101010100000000000000000001000188
:10343E000101000000010101010001000100000175
:10344E00000100000000073B3C4D432C242D0419C5
:10345E0000002E25265D16616100000000520E0050
:10346E0000364E3E464A540000411E3D4E52490023
:10347E00544A5B45005B4149000001010100010116
:10348E000000000000010000000100010101010028
:10349E000001010101000100000000010001000017
:1034AE000000051C4D4D4B24041900002E25261E30
:1034BE0016494100000000000000003D5246454EF6
:1034CE00545B004C524A4A004C00364E5555003E55
:1034DE00414900000101010101010100000000004D
:1034EE0000000001000101010000000001000100C8
:1034FE00010001000100000100000000044D212226
:10350E002C04643214060504030234330000001B3D
:10351E001A2B2B2908280A0B0C1A1B0027283535C5
:10352E00002700070C0D0D000933340000010101C6
:10353E000101010100000001010001010100010172
:10354E000100000000010001000100010001000067
:10355E00010000000005040302010000000000004D
:10356E00000000090607080C000000000000000B18
:10357E0000000000000000000A000000000203042A
:10358E000001020202030302030405060700010400
:10359E0004040404040202020303030212140100D1
:1035AE0000000000000000000102020303030304F8
:1035BE0004040404040404050505050505050505B4
:1035CE000505050505050506060606060606060694
:1035DE00060606060606060606060606060606067D
:1035EE000606060606060607070707070707070764
:1035FE00070707070707070707070707070707074D
:10360E00070707070707070707070707070707073C
:10361E00070707070707070707070707070707072C
:10362E000707070707070708080808080808080813
:10363E0008080808080808080808080808080808FC
:10364E0008080808080808080808080808080808EC
:10365E0008080808080808080808080808080808DC
:10366E0008080808080808080808080808080808CC
:10367E0008080808080808080808080808080808BC
:10368E0008080808080808080808080808080808AC
:10369E00080808080808080808080808080808089C
:0836AE000808080808080800DC
:00000001FF
