:100000000C9434000C9451000C9451000C94510049
:100010000C9451000C9451000C9451000C9451001C
:100020000C9451000C9451000C9451000C9451000C
:100030000C9451000C9451000C9451000C945100FC
:100040000C9451000C9451000C9451000C945100EC
:100050000C9451000C9451000C9451000C945100DC
:100060000C9451000C94510011241FBECFEFD8E026
:10007000DEBFCDBF11E0A0E0B1E0EEEFFDE002C0D9
:1000800005900D92AA34B107D9F711E0AAE4B1E0C6
:1000900001C01D92A837B107E1F70E94F6060C9443
:1000A000FD060C9400002D9A88E592E020E931E0ED
:1000B000F9013197F1F70197D9F72D988CE291E08A
:1000C00020E931E0F9013197F1F70197D9F7089567
:1000D000382F6330710501F164307105B1F1623080
:1000E000710509F04AC0452B61F024B181E090E030
:1000F00002C0880F991F3A95E2F78095822384B950
:10010000089524B181E090E002C0880F991F3A95CC
:10011000E2F7282B24B90895452B61F027B181E03F
:1001200090E002C0880F991F3A95E2F780958223EC
:1001300087B9089527B181E090E002C0880F991F28
:100140003A95E2F7282B27B90895452B61F02AB19B
:1001500081E090E002C0880F991F3A95E2F7809500
:1001600082238AB908952AB181E090E002C0880F05
:10017000991F3A95E2F7282B2AB90895282F633062
:10018000710551F06430710589F06230710511F02C
:1001900080E0089583B101C086B190E002C09595DA
:1001A00087952A95E2F780958170089589B190E04E
:1001B00002C0959587952A95E2F7809581700895FC
:1001C000382F6330710501F164307105B1F162308F
:1001D000710509F04AC0452B61F425B181E090E03A
:1001E00002C0880F991F3A95E2F78095822385B95E
:1001F000089525B181E090E002C0880F991F3A95DB
:10020000E2F7282B25B90895452B61F428B181E048
:1002100090E002C0880F991F3A95E2F780958223FB
:1002200088B9089528B181E090E002C0880F991F35
:100230003A95E2F7282B28B90895452B61F42BB1A4
:1002400081E090E002C0880F991F3A95E2F780950F
:1002500082238BB908952BB181E090E002C0880F12
:10026000991F3A95E2F7282B2BB90895382F66236A
:1002700061F027B181E090E002C0880F991F3A95A4
:10028000E2F78095822387B9089527B181E090E055
:1002900002C0880F991F3A95E2F7282B27B90895D5
:1002A0004498459884E061E00E94360185E061E071
:1002B0000E9436010895359902C081E0089586B103
:1002C00082958F70809581700895DF92EF92FF92F2
:1002D0000F931F93CF93DF93F82E2D9A0E945B010B
:1002E000882309F07AC084E060E00E94360115E1BD
:1002F000812F8A95F1F785E060E00E9436018AE25D
:100300008A95F1F785E061E00E9436011A95F1F7D0
:1003100011E000E095E1E92E8AE2D82E8F2D90E0E1
:10032000EC01C170D070F0FE03C084E061E002C057
:1003300084E060E00E9436018E2D8A95F1F785E019
:1003400060E00E9436018D2D8A95F1F785E061E02D
:100350000E9436018E2D8A95F1F7CD2B29F080E091
:10036000112309F481E0182F0F5F083011F0F69483
:10037000D5CF112319F084E061E002C084E060E091
:100380000E94360115E1812F8A95F1F785E060E042
:100390000E9436010AE2802F8A95F1F785E061E03C
:1003A0000E943601812F8A95F1F784E061E00E9476
:1003B0003601812F8A95F1F785E060E00E943601D1
:1003C0000A95F1F785E061E00E9436011A95F1F790
:1003D00088EC90E00197F1F72D98DF91CF911F9174
:1003E0000F91FF90EF90DF9008950F931F93CF939D
:1003F000DF93259A2D98609144018091420190E00D
:1004000070E041E050E00E946800609144018091FA
:10041000420190E070E041E050E00E94E000609115
:1004200045018091430190E070E041E050E00E947E
:100430006800609145018091430190E070E041E0E7
:1004400050E00E94E000C8E2D1E00DE211E0F801C6
:100450006081888190E070E041E050E00E94680097
:10046000F80161918F01899190E070E041E050E0E6
:100470000E94E000F1E0CD32DF0749F7C0E0D0E0B4
:10048000FE01EE5CFE4FDE01A65CBE4F6C918081EA
:1004900090E070E041E050E00E9468002196C83092
:1004A000D10571F7DF91CF911F910F910895AF9210
:1004B000BF92CF92DF92EF92FF920F931F93D82EAD
:1004C000B62E142FF22E80916701813011F0833007
:1004D00099F4112319F480EE0E94650180EF0E94C7
:1004E0006501809146010E9465011092670180912B
:1004F00074018F5F8093740180917001813011F0DD
:10050000833099F4112319F480EE0E94650180EF85
:100510000E946501809147010E946501109270015F
:10052000809174018F5F809374018091740188239E
:1005300029F08AE18A95F1F710927401EE2041F0DA
:1005400089E50E946501809174018F5F8093740139
:10055000CC2059F080EE0E94650184E10E94650183
:10056000809174018F5F80937401AA2041F081E132
:100570000E946501809174018F5F80937401809166
:100580007401882329F08AE18A95F1F710927401A9
:10059000002319F080EE0E9465018F2D0E946501F5
:1005A0008AE18A95F1F7002319F080EE0E94650137
:1005B00080EF0E9465018F2D0E9465018D2D90E0D6
:1005C000FC01EE0FFF1FEE0FFF1FE80FF91FEB0DF1
:1005D000F11DE65BFE4F1082EE2031F080EF0E94AD
:1005E000650189E50E946501CC2049F080EE0E94FA
:1005F000650180EF0E94650184E10E946501AA20E7
:1006000031F080EF0E94650181E10E9465018AE17D
:100610008A95F1F781E080937501809376011F91AF
:100620000F91FF90EF90DF90CF90BF90AF90089523
:100630003F924F925F926F927F928F929F92AF9272
:10064000BF92CF92DF92EF92FF920F931F93CF93BF
:10065000DF931092750102E411E0C4E4D1E0FF24BD
:1006600095E3C92E8AE1E82EDD24D3946881F80150
:10067000808190E070E00E94BE00882301F18C2D03
:100680008A95F1F76881F801808190E070E00E941E
:10069000BE008823A1F0FF2009F08BC38CE10E94EB
:1006A00065018E2D8A95F1F780EF0E9465018CE13E
:1006B0000E9465018E2D8A95F1F7D0927501F39411
:1006C0000F5F1F4F2196F2E0FF1681F680917501B2
:1006D000882309F07EC012E3812E11E0912EBAE347
:1006E000AB2EB1E0BB2ECC24DD24AAE13A2E772438
:1006F0007394F5E34F2EE2E05E2E73E0672EF50172
:100700006081F401808190E070E040E050E00E9460
:100710006800F5016081F401808190E070E040E0C4
:1007200050E00E94E000832D8A95F1F708E211E085
:100730006DE2E62E61E0F62EE601CC0FDD1FCC0F58
:10074000DD1FCC0DDD1DC65BDE4FF7016081F801BA
:10075000808190E070E00E94BE008823C9F0842D63
:100760008A95F1F7F7016081F801808190E070E0EF
:100770000E94BE009881882341F0923009F468827B
:100780008881882341F4588206C0992321F002C051
:100790008881811178820F5F1F4F0894E11CF11C42
:1007A0002196F1E00D321F0781F6F50161915F019D
:1007B000F40181914F0190E070E041E050E00E942F
:1007C00068000894C11CD11CF8E0CF16D10409F0D0
:1007D00096CF80917501882309F045C28091670109
:1007E000823008F43EC280917001823008F439C230
:1007F00080917601882309F036C2809171018230A0
:1008000058F087E064E04091480126E700E0EE24DC
:10081000CC24AA240E94570280914E01823058F0C5
:1008200080E064E04091480125E000E0EE24CC2423
:10083000AA240E94570280914D01823058F080E036
:1008400063E04091480126E000E0EE24CC24AA2495
:100850000E94570280914C01823058F080E062E0A3
:100860004091480124E000E0EE24CC24AA240E9418
:10087000570280914B01823058F080E061E0409156
:1008800048012CE000E0EE24CC24AA240E94570268
:1008900080914A01823058F080E060E04091480148
:1008A00023E000E0EE24CC24AA240E945702809189
:1008B0005901823058F083E060E0409148012BE01C
:1008C00000E0EE24CC24AA240E94570280915A0111
:1008D000823058F083E061E04091480123E800E075
:1008E000EE24CC24AA240E94570280915B0182301E
:1008F00058F083E062E0409148012AE000E0EE24F5
:10090000CC24AA240E94570280915C01823058F0C6
:1009100083E063E04091480121E000E0EE24CC2434
:10092000AA240E94570280915D01823058F083E032
:1009300064E04091480129E000E0EE24CC24AA24A0
:100940000E94570280915301823058F081E064E0A8
:100950004091480128E700E0EE24CC24AA240E941C
:10096000570280915201823058F081E063E040915B
:10097000480125E701E0EE24CC24AA240E94570276
:1009800080915101823058F081E062E0409148014D
:1009900027E000E0EE24CC24AA240E945702809194
:1009A0005001823068F081E061E04091480121E728
:1009B00000E0EE24CC24C394AA24A3940E945702FE
:1009C00080914F01823068F081E060E04091480101
:1009D00026E600E0EE24CC24C394AA24A3940E942B
:1009E000570280915E01823060F084E060E04091C7
:1009F000480127E000E0EE24E394CC24AA240E94DE
:100A0000570280915F01823058F084E061E04091AC
:100A100048012EE700E0EE24CC24AA240E945702CD
:100A200080916001823068F084E062E0409148018A
:100A300023E000E0EE24CC24C394AA24A3940E94D3
:100A4000570280916101823058F084E063E0409168
:100A500048012CE400E0EE24CC24AA240E94570292
:100A600080916201823058F084E064E04091480156
:100A70002DE400E0EE24CC24AA240E9457028091A9
:100A80005801823058F082E064E0409148012BE642
:100A900001E0EE24CC24AA240E9457028091570141
:100AA000823058F082E063E04091480122E701E0A3
:100AB000EE24CC24AA240E94570280915601823051
:100AC00058F082E062E04091480124E701E0EE2422
:100AD000CC24AA240E94570280915501823058F0FC
:100AE00082E061E0409148012BE200E0EE24CC245A
:100AF000AA240E94570280915401823058F082E06B
:100B000060E04091480124E300E0EE24CC24AA24D4
:100B10000E94570280916801823058F086E060E0C0
:100B20004091480123E300E0EE24CC24AA240E9453
:100B3000570280916901823058F086E061E040916F
:100B400048012BE300E0EE24CC24AA240E945702A3
:100B500080916A01823058F086E062E0409148015D
:100B600022E400E0EE24CC24AA240E9457028091C3
:100B70006B01823058F086E063E0409148012BE43D
:100B800000E0EE24CC24AA240E9457028091660142
:100B9000823060F085E063E0409148012CE400E0A1
:100BA000EE24E394CC24AA240E945702809165018C
:100BB000823058F085E062E04091480122E200E096
:100BC000EE24CC24AA240E94570280916401823032
:100BD00058F085E061E04091480121E200E0EE2418
:100BE000CC24AA240E94570280916301823058F0DD
:100BF00085E060E0409148012AE200E0EE24CC2448
:100C0000AA240E94570280916D01823058F087E03B
:100C100060E0409148012BE500E0EE24CC24AA24BA
:100C20000E94570280916E01823058F087E061E0A7
:100C30004091480121E400E0EE24CC24AA240E9443
:100C4000570280916F01823070F087E062E040913E
:100C5000480129E400E0EE24CC24AA240E94570293
:100C600002C01092760180917501882309F0ACC012
:100C700080916701823099F480914801882319F4AA
:100C800080EE0E946501809146010E94650183E02B
:100C900080936701809174018F5F809374018091CC
:100CA0007001823099F480914801882319F480EE14
:100CB0000E946501809147010E94650183E0809355
:100CC0007001809174018F5F80937401809167013E
:100CD0008130A9F480914801882319F480EE0E94A4
:100CE000650180EF0E946501809146010E946501C7
:100CF00010926701809174018F5F809374018091DD
:100D000070018130A9F480914801882319F480EEA4
:100D10000E94650180EF0E946501809147010E9459
:100D2000650110927001809174018F5F809374014E
:100D300080917401882329F08AE18A95F1F7109255
:100D400074014FE4C42E41E0D42EEE24FF2423C0CE
:100D50008881823021F4F80180810E9465018881B8
:100D6000813041F480EF0E946501F80180810E948A
:100D70006501188221960F5F1F4FCC15DD0541F7E5
:100D80000894E11CF11C85E090E0C80ED91E98E0A3
:100D9000E916F104C9F0C701880F991F880F991F40
:100DA0008E0D9F1DEC01C65BDE4F8C0100501F4F66
:100DB000CFCF82E30E9465018E2D8A95F1F780EFF7
:100DC0000E94650182E374CCDF91CF911F910F9156
:100DD000FF90EF90DF90CF90BF90AF909F908F905B
:100DE0007F906F905F904F903F9008950E94F50123
:0E0DF0000E9450010E941803FDCFF894FFCF1F
:100DFE002E25261E162C2D241D15342B231B1C369A
:100E0E003D3E4645353C43444D2A21221A00333B94
:100E1E00424B5A32313A0029020304000102020207
:100E2E00030302030405060700010404040404047A
:0A0E3E000202020303031214010074
:00000001FF
