:100000000C9434000C9451000C9451000C94510049
:100010000C9451000C9451000C9451000C9451001C
:100020000C9451000C9451000C9451000C9451000C
:100030000C9451000C9451000C9451000C945100FC
:100040000C9451000C9451000C9451000C945100EC
:100050000C9451000C9451000C9451000C945100DC
:100060000C9451000C94510011241FBECFEFD8E026
:10007000DEBFCDBF11E0A0E0B1E0EAE2FCE002C0EB
:1000800005900D92A434B107D9F711E0A4E4B1E0D2
:1000900001C01D92AF36B107E1F70E940C060C9427
:1000A00013060C9400002D9A88E592E020E931E0D7
:1000B000F9013197F1F70197D9F72D988CE291E08A
:1000C00020E931E0F9013197F1F70197D9F7089567
:1000D000382F6330710501F164307105B1F1623080
:1000E000710509F04AC0452B61F024B181E090E030
:1000F00002C0880F991F3A95E2F78095822384B950
:10010000089524B181E090E002C0880F991F3A95CC
:10011000E2F7282B24B90895452B61F027B181E03F
:1001200090E002C0880F991F3A95E2F780958223EC
:1001300087B9089527B181E090E002C0880F991F28
:100140003A95E2F7282B27B90895452B61F02AB19B
:1001500081E090E002C0880F991F3A95E2F7809500
:1001600082238AB908952AB181E090E002C0880F05
:10017000991F3A95E2F7282B2AB90895282F633062
:10018000710551F06430710589F06230710511F02C
:1001900080E0089583B101C086B190E002C09595DA
:1001A00087952A95E2F780958170089589B190E04E
:1001B00002C0959587952A95E2F7809581700895FC
:1001C000382F6330710501F164307105B1F162308F
:1001D000710509F04AC0452B61F425B181E090E03A
:1001E00002C0880F991F3A95E2F78095822385B95E
:1001F000089525B181E090E002C0880F991F3A95DB
:10020000E2F7282B25B90895452B61F428B181E048
:1002100090E002C0880F991F3A95E2F780958223FB
:1002200088B9089528B181E090E002C0880F991F35
:100230003A95E2F7282B28B90895452B61F42BB1A4
:1002400081E090E002C0880F991F3A95E2F780950F
:1002500082238BB908952BB181E090E002C0880F12
:10026000991F3A95E2F7282B2BB90895382F66236A
:1002700061F027B181E090E002C0880F991F3A95A4
:10028000E2F78095822387B9089527B181E090E055
:1002900002C0880F991F3A95E2F7282B27B90895D5
:1002A0004498459884E061E00E94360185E061E071
:1002B0000E9436010895359902C081E0089586B103
:1002C00082958F70809581700895DF92EF92FF92F2
:1002D0000F931F93CF93DF93F82E2D9A0E945B010B
:1002E000882309F07AC084E060E00E94360115E1BD
:1002F000812F8A95F1F785E060E00E9436018AE25D
:100300008A95F1F785E061E00E9436011A95F1F7D0
:1003100011E000E095E1E92E8AE2D82E8F2D90E0E1
:10032000EC01C170D070F0FE03C084E061E002C057
:1003300084E060E00E9436018E2D8A95F1F785E019
:1003400060E00E9436018D2D8A95F1F785E061E02D
:100350000E9436018E2D8A95F1F7CD2B29F080E091
:10036000112309F481E0182F0F5F083011F0F69483
:10037000D5CF112319F084E061E002C084E060E091
:100380000E94360115E1812F8A95F1F785E060E042
:100390000E9436010AE2802F8A95F1F785E061E03C
:1003A0000E943601812F8A95F1F784E061E00E9476
:1003B0003601812F8A95F1F785E060E00E943601D1
:1003C0000A95F1F785E061E00E9436011A95F1F790
:1003D00088EC90E00197F1F72D98DF91CF911F9174
:1003E0000F91FF90EF90DF9008950F931F93CF939D
:1003F000DF93259A2D98C8E2D1E00DE211E0F801D3
:100400006081888190E070E041E050E00E946800E7
:10041000F80161918F01899190E070E041E050E036
:100420000E94E000F1E0CD32DF0749F7C0E0D0E004
:10043000FE01EE5CFE4FDE01A65CBE4F6C9180813A
:1004400090E070E041E050E00E9468002196C830E2
:10045000D10571F7DF91CF911F910F910895BF9250
:10046000CF92DF92EF92FF920F931F93D82EB62E6A
:10047000F42E122F80916101813011F0833089F4C4
:1004800080EE0E94650180EF0E946501809142012B
:100490000E9465011092610180916C018F5F8093D1
:1004A0006C0180916A01813011F0833089F480EE13
:1004B0000E94650180EF0E946501809143010E94C6
:1004C000650110926A0180916C018F5F80936C01CD
:1004D00080916C01882329F08AE18A95F1F71092C6
:1004E0006C01002341F082E10E94650180916C0162
:1004F0008F5F80936C01EE2041F084E10E946501E2
:1005000080916C018F5F80936C01CC2041F081E180
:100510000E94650180916C018F5F80936C018091D6
:100520006C01882329F08AE18A95F1F710926C0119
:10053000112319F080EE0E9465018F2D0E94650144
:100540008AE18A95F1F7112319F080EE0E94650186
:1005500080EF0E9465018F2D0E9465018D2D90E036
:10056000FC01EE0FFF1FEE0FFF1FE80FF91FEB0D51
:10057000F11DEC5BFE4F1082002331F080EF0E94F2
:10058000650182E10E946501EE2031F080EF0E945A
:10059000650184E10E946501CC2031F080EF0E946A
:1005A000650181E10E9465018AE18A95F1F781E0A8
:1005B00080936D011F910F91FF90EF90DF90CF908E
:1005C000BF9008953F924F925F926F927F928F9269
:1005D0009F92AF92BF92CF92DF92EF92FF920F93D2
:1005E0001F93CF93DF9312E3812E11E0912EBAE394
:1005F000AB2EB1E0BB2ECC24DD24AAE13A2E772429
:100600007394F5E34F2EE2E05E2E73E0672EF50162
:100610006081F401808190E070E040E050E00E9451
:100620006800F5016081F401808190E070E040E0B5
:1006300050E00E94E000832D8A95F1F708E211E076
:100640006DE2E62E61E0F62EE601CC0FDD1FCC0F49
:10065000DD1FCC0DDD1DCC5BDE4FF7016081F801A5
:10066000808190E070E00E94BE008823C9F0842D54
:100670008A95F1F7F7016081F801808190E070E0E0
:100680000E94BE009881882341F0923009F468826C
:100690008881882341F4588206C0992321F002C042
:1006A0008881811178820F5F1F4F0894E11CF11C33
:1006B0002196F1E00D321F0781F6F50161915F018E
:1006C000F40181914F0190E070E041E050E00E9420
:1006D00068000894C11CD11CF8E0CF16D10409F0C1
:1006E00096CF10926D0180916101823008F4ECC1C7
:1006F00080916A01823008F4E7C180916B018230F9
:1007000048F087E064E046E720E000E0EE24CC24F7
:100710000E942F0280914801823048F080E064E01E
:1007200045E020E000E0EE24CC240E942F028091DE
:100730004701823048F080E063E046E020E000E0DE
:10074000EE24CC240E942F0280914601823048F092
:1007500080E062E044E020E000E0EE24CC240E944F
:100760002F0280914501823048F080E061E04CE04A
:1007700020E000E0EE24CC240E942F02809144016E
:10078000823048F080E060E043E020E000E0EE24CA
:10079000CC240E942F0280915301823048F083E0E4
:1007A00060E04BE020E000E0EE24CC240E942F0229
:1007B00080915401823048F083E061E043E820E01A
:1007C00000E0EE24CC240E942F028091550182305B
:1007D00048F083E062E04AE020E000E0EE24CC2430
:1007E0000E942F0280915601823048F083E063E03E
:1007F00041E020E000E0EE24CC240E942F02809112
:100800005701823048F083E064E049E020E000E0F6
:10081000EE24CC240E942F0280914D01823048F0BA
:1008200081E064E048E720E000E0EE24CC240E9470
:100830002F0280914C01823048F081E063E045E76F
:1008400021E000E0EE24CC240E942F0280914B0195
:10085000823048F081E062E047E020E000E0EE24F2
:10086000CC240E942F0280914A01823058F081E00E
:1008700061E041E720E000E0EE24E394CC24C3945F
:100880000E942F0280914901823058F081E060E09F
:1008900046E620E000E0EE24E394CC24C3940E94DA
:1008A0002F0280915801823048F084E060E047E0F8
:1008B00020E001E0EE24CC240E942F028091590117
:1008C000823048F084E061E04EE720E000E0EE2472
:1008D000CC240E942F0280915A01823058F084E08B
:1008E00062E043E020E000E0EE24E394CC24C394F3
:1008F0000E942F0280915B01823048F084E063E027
:100900004CE420E000E0EE24CC240E942F028091F1
:100910005C01823048F084E064E04DE420E000E0D7
:10092000EE24CC240E942F0280915201823048F0A4
:1009300082E064E04BE621E000E0EE24CC240E945B
:100940002F0280915101823048F082E063E042E75B
:1009500021E000E0EE24CC240E942F02809150017F
:10096000823048F082E062E044E721E000E0EE24DB
:10097000CC240E942F0280914F01823048F082E007
:1009800061E04BE220E000E0EE24CC240E942F0244
:1009900080914E01823048F082E060E044E320E044
:1009A00000E0EE24CC240E942F028091620182306C
:1009B00048F086E060E043E320E000E0EE24CC2451
:1009C0000E942F0280916301823048F086E061E04E
:1009D0004BE320E000E0EE24CC240E942F02809123
:1009E0006401823048F086E062E042E420E000E00A
:1009F000EE24CC240E942F0280916501823048F0C1
:100A000086E063E04BE420E000E0EE24CC240E948A
:100A10002F0280916001823048F085E063E04CE471
:100A200020E001E0EE24CC240E942F0280915F019F
:100A3000823048F085E062E042E220E000E0EE240F
:100A4000CC240E942F0280915E01823048F085E024
:100A500061E041E220E000E0EE24CC240E942F027D
:100A600080915D01823048F085E060E04AE220E05C
:100A700000E0EE24CC240E942F0280916701823096
:100A800048F087E060E04BE520E000E0EE24CC2475
:100A90000E942F0280916801823048F087E061E077
:100AA00041E420E000E0EE24CC240E942F0280915B
:100AB0006901823048F087E062E049E420E000E02C
:100AC000EE24CC240E942F0280916D01882309F02E
:100AD00091C080916101823079F480EE0E946501BD
:100AE000809142010E94650183E0809361018091C1
:100AF0006C018F5F80936C0180916A01823079F480
:100B000080EE0E946501809143010E94650183E0AF
:100B100080936A0180916C018F5F80936C0180915A
:100B20006101813089F480EE0E94650180EF0E94AE
:100B30006501809142010E946501109261018091DE
:100B40006C018F5F80936C0180916A01813089F420
:100B500080EE0E94650180EF0E9465018091430153
:100B60000E94650110926A0180916C018F5F8093F1
:100B70006C0180916C01882329F08AE18A95F1F754
:100B800010926C0149E4C42E41E0D42EEE24FF24DF
:100B900023C08881823021F4F80180810E946501A0
:100BA0008881813041F480EF0E946501F8018081E5
:100BB0000E946501188221960F5F1F4FCC15DD053D
:100BC00041F70894E11CF11C85E090E0C80ED91EA5
:100BD00098E0E916F10471F0C701880F991F880F9A
:100BE000991F8E0D9F1DEC01CC5BDE4F8C010050D8
:100BF0001F4FCFCFDF91CF911F910F91FF90EF90BB
:100C0000DF90CF90BF90AF909F908F907F906F902C
:100C10005F904F903F9008950E94F5010E9450010F
:0A0C20000E94E202FDCFF894FFCF1E
:100C2A002E25261E162C2D241D15342B231B1C366F
:100C3A003D3E4645353C43444D2A21221A00333B6A
:100C4A00424B5A32313A00290203040001020202DD
:100C5A000303020304050607000104040404040450
:040C6A0002021F273C
:00000001FF
