:100000000C9434000C9451000C9451000C94510049
:100010000C9451000C9451000C9451000C9451001C
:100020000C9451000C9451000C9451000C9451000C
:100030000C9451000C9451000C9451000C945100FC
:100040000C9451000C9451000C9451000C945100EC
:100050000C9451000C9451000C9451000C945100DC
:100060000C9451000C94510011241FBECFEFD8E026
:10007000DEBFCDBF11E0A0E0B1E0E6E6FBE002C0EC
:1000800005900D92A439B107D9F712E0A4E9B1E0C7
:1000900001C01D92A639B107E1F70E94AA050C9490
:1000A000B1050C9400002D9A88E592E020E931E03A
:1000B000F9013197F1F70197D9F72D988CE291E08A
:1000C00020E931E0F9013197F1F70197D9F7089567
:1000D000382F6330710501F164307105B1F1623080
:1000E000710509F04AC0452B61F024B181E090E030
:1000F00002C0880F991F3A95E2F78095822384B950
:10010000089524B181E090E002C0880F991F3A95CC
:10011000E2F7282B24B90895452B61F027B181E03F
:1001200090E002C0880F991F3A95E2F780958223EC
:1001300087B9089527B181E090E002C0880F991F28
:100140003A95E2F7282B27B90895452B61F02AB19B
:1001500081E090E002C0880F991F3A95E2F7809500
:1001600082238AB908952AB181E090E002C0880F05
:10017000991F3A95E2F7282B2AB90895282F633062
:10018000710551F06430710589F06230710511F02C
:1001900080E0089583B101C086B190E002C09595DA
:1001A00087952A95E2F780958170089589B190E04E
:1001B00002C0959587952A95E2F7809581700895FC
:1001C000382F6330710501F164307105B1F162308F
:1001D000710509F04AC0452B61F425B181E090E03A
:1001E00002C0880F991F3A95E2F78095822385B95E
:1001F000089525B181E090E002C0880F991F3A95DB
:10020000E2F7282B25B90895452B61F428B181E048
:1002100090E002C0880F991F3A95E2F780958223FB
:1002200088B9089528B181E090E002C0880F991F35
:100230003A95E2F7282B28B90895452B61F42BB1A4
:1002400081E090E002C0880F991F3A95E2F780950F
:1002500082238BB908952BB181E090E002C0880F12
:10026000991F3A95E2F7282B2BB90895382F66236A
:1002700061F027B181E090E002C0880F991F3A95A4
:10028000E2F78095822387B9089527B181E090E055
:1002900002C0880F991F3A95E2F7282B27B90895D5
:1002A0004498459884E061E00E94360185E061E071
:1002B0000E9436010895359902C081E0089586B103
:1002C00082958F70809581700895AF92BF92CF9282
:1002D000DF92EF92FF920F931F93CF93DF93E82E5D
:1002E0002D9A0E945B01882309F087C084E060E0BA
:1002F0000E94360100EC13E0C8010197F1F785E098
:1003000060E00E94360180E897E00197F1F785E010
:1003100061E00E943601C8010197F1F701E010E0A9
:1003200020ECC22E23E0D22E90E8A92E97E0B92E21
:100330008E2D90E0EC01C170D070E0FE03C084E02F
:1003400061E002C084E060E00E943601C6010197CE
:10035000F1F785E060E00E943601C5010197F1F7F1
:1003600085E061E00E943601C6010197F1F7CD2BCF
:1003700029F080E0002309F481E0082F1F5F183086
:1003800011F0E694D5CF002319F084E061E002C0BB
:1003900084E060E00E94360100EC13E0C8010197A0
:1003A000F1F785E060E00E94360180E8E82E87E002
:1003B000F82EC7010197F1F785E061E00E94360150
:1003C000C8010197F1F784E061E00E943601C8019D
:1003D0000197F1F785E060E00E943601C7010197BF
:1003E000F1F785E061E00E943601C8010197F1F75D
:1003F00080E896E10197F1F72D98DF91CF911F9159
:100400000F91FF90EF90DF90CF90BF90AF90089545
:10041000FF920F931F93182FF42E022F662369F07B
:1004200080919302882349F4222339F0809192012C
:100430000E94650181E080939302FF2069F0809122
:100440009402882349F4002339F0809193010E949B
:10045000650181E080939402112349F0812F0E946D
:100460006501E12FF0E0EC56FE4F81E080831F91A3
:100470000F91FF90089590E0FC01EE0FFF1FEE0F2B
:10048000FF1FE80FF91FE60FF11DE050FF4F8081BD
:10049000642F422F21E00E9408020895FF920F93DB
:1004A0001F93CF93DF93042FF22E90E0FC01EE0F09
:1004B000FF1FEE0FFF1FE80FF91FE60FF11DE050C1
:1004C000FF4F1081112371F0C12FD0E0CC56DE4FC9
:1004D0008881882339F080EF0E946501812F0E9476
:1004E00065011882002369F480919302882349F002
:1004F00080EF0E946501809192010E946501109237
:100500009302FF2069F480919402882349F080EFE0
:100510000E946501809193010E94650110929402EE
:10052000DF91CF911F910F91FF90089580919201DB
:100530000E946501809193010E9465018AE18A957C
:10054000F1F780EF0E946501809192010E946501A0
:1005500080EF0E946501809193010E9465010895DA
:10056000EF92FF920F931F93182F062FF42EE22E77
:10057000662319F084E10E946501FF2019F081E1F2
:100580000E946501EE2019F082E10E946501812F31
:100590000E9465018AE18A95F1F780EF0E9465016A
:1005A000812F0E946501002331F080EF0E946501D8
:1005B00084E10E946501FF2031F080EF0E94650117
:1005C00081E10E946501EE2031F080EF0E9465011B
:1005D00082E10E9465011F910F91FF90EF900895B5
:1005E0000F931F93CF93DF93259A2D98C8E7D1E0FF
:1005F0000DE711E0F8016081888190E070E041E052
:1006000050E00E946800F80161918F01899190E0AB
:1006100070E041E050E00E94E000F1E0CD37DF07FC
:1006200049F7C0E0D0E0FE01EE57FE4FDE01A657CD
:10063000BE4F6C91808190E070E041E050E00E94FC
:1006400068002196C830D10571F7DF91CF911F91D5
:100650000F9108952F923F924F925F926F927F92E7
:100660008F929F92AF92BF92CF92DF92EF92FF92C2
:100670000F931F93CF93DF9360918F018091870138
:1006800090E070E040E050E00E9468008AE18A95C6
:10069000F1F76091810180917C0190E070E00E940F
:1006A000BE00582E882311F05524539460918F0179
:1006B0008091870190E070E041E050E00E94680086
:1006C0001AE1812F8A95F1F760919101809189015A
:1006D00090E070E040E050E00E9468001A95F1F769
:1006E0006091800180917B0190E070E00E94BE00EB
:1006F000A82E882311F0AA24A3941AE1812F8A95A9
:10070000F1F7609191018091890190E070E041E002
:1007100050E00E946800552011F0AA2079F4A2E868
:100720006A2EA1E07A2EFAE88F2EF1E09F2ECC24DB
:10073000DD24EAE12E2E75E3372E72C160918A0125
:100740008091820190E070E040E050E00E946800FB
:10075000812F8A95F1F76091810180917C0190E071
:1007600070E00E94BE00882311F005E001C000E0A7
:100770006091800180917B0190E070E00E94BE005A
:10078000811106E060917F0180917A0190E070E034
:100790000E94BE00811104E060917E018091790188
:1007A00090E070E00E94BE0081110CE060917D013C
:1007B0008091780190E070E00E94BE00811103E01A
:1007C00060918A018091820190E070E041E050E008
:1007D0000E9468001AE1812F8A95F1F760918D01DE
:1007E0008091850190E070E040E050E00E94680058
:1007F0001A95F1F760917D018091780190E070E0A9
:100800000E94BE0081110BE060917E018091790110
:1008100090E070E00E94BE00811103E860917F01CA
:1008200080917A0190E070E00E94BE0081110AE0A0
:100830006091800180917B0190E070E00E94BE0099
:10084000811101E06091810180917C0190E070E074
:100850000E94BE00811109E060918D0180918501A7
:1008600090E070E041E050E00E9468001AE1812FC2
:100870008A95F1F760918B018091830190E070E09F
:1008800040E050E00E9468001A95F1F76091810104
:1008900080917C0190E070E00E94BE00811108E729
:1008A0006091800180917B0190E070E00E94BE0029
:1008B000811107E060917F0180917A0190E070E002
:1008C0000E94BE00882331F003E0EE24E394FF246D
:1008D000F39402C0EE24FF2460917E01809179019F
:1008E00090E070E00E94BE00882329F001E7EE242A
:1008F000E394FF24F39460917D018091780190E06E
:1009000070E00E94BE00882329F006E6EE24E394FE
:10091000FF24F39460918B018091830190E070E05B
:1009200041E050E00E9468001AE1812F8A95F1F7BA
:1009300060918E018091860190E070E040E050E08F
:100940000E9468001A95F1F760917D01809178010D
:1009500090E070E00E94BE0081110EE760917E0180
:100960008091790190E070E00E94BE00882321F020
:1009700007E0DD24D39401C0DD2460917F018091E4
:100980007A0190E070E00E94BE00882329F003E025
:10099000EE24E394FF24F3946091800180917B0125
:1009A00090E070E00E94BE00882329F001E7EE2469
:1009B000E394FF24F3946091810180917C0190E0A5
:1009C00070E00E94BE00882311F410E00BC08091FB
:1009D0009502882319F01092950203C081E080935C
:1009E000950211E060918E018091860190E070E0A7
:1009F00041E050E00E9468008AE18A95F1F7002307
:100A000039F0802F6D2D4E2D2F2D0E94B00286C003
:100A1000112309F083C081E061E00E9496027EC04C
:100A20004C2CF4016081F301808190E070E040E0A3
:100A300050E00E946800F4016081F301808190E041
:100A400070E040E050E00E94E000822D8A95F1F7CE
:100A500068E7E62E61E0F62E0DE711E0E601CC0F27
:100A6000DD1FCC0FDD1FCC0DDD1DC050DF4FBB24C3
:100A7000F8016081F701808190E070E00E94BE0083
:100A80008823A1F0832D8A95F1F7F8016081F701A1
:100A9000808190E070E00E94BE00882339F0888158
:100AA000652D4A2D21E00E94080206C0842D6B2D81
:100AB000452D2A2D0E944E02B3940894E11CF11C8E
:100AC0000F5F1F4F2196F5E0BF1691F6F40161917B
:100AD0004F01F30181913F0190E070E041E050E06F
:100AE0000E9468000894C11CD11CF8E0CF16D10404
:100AF00009F096CF60918F018091870190E070E0BE
:100B000040E050E00E94E0006091910180918901F5
:100B100090E070E040E050E00E94E00088EE93E05A
:100B200020E931E0F9013197F1F70197D9F7DF9129
:100B3000CF911F910F91FF90EF90DF90CF90BF90DA
:100B4000AF909F908F907F906F905F904F903F906D
:100B50002F9008950E94F0020E9450010E942A03E3
:060B6000FDCFF894FFCF69
:100B66002E25261E162C2D241D15342B231B1C3634
:100B76003D3E4645353C43444D2A21221A00333B2F
:100B8600424B5A32313A00296B00005800000000EF
:100B9600000000000000007275740066000000008E
:100BA60000000000000000000000000000000076C9
:100BB600000000000000000000000000000000002F
:100BC600000000000000000000000000000000001F
:100BD60000000000000000000203040001020202FF
:100BE60003030203040506070001040404040404C5
:040BF60002021214D1
:00000001FF
