:100000000C9434000C9451000C9451000C94510049
:100010000C9451000C9451000C9451000C9451001C
:100020000C9451000C9451000C9451000C9451000C
:100030000C9451000C9451000C9451000C945100FC
:100040000C9451000C9451000C9451000C945100EC
:100050000C9451000C9451000C9451000C945100DC
:100060000C9451000C94510011241FBECFEFD8E026
:10007000DEBFCDBF11E0A0E0B1E0E0E5FCE002C0F2
:1000800005900D92AC3BB107D9F712E0ACEBB1E0B3
:1000900001C01D92AE3BB107E1F70E941F060C9410
:1000A00026060C9400002D9A88E592E020E931E0C4
:1000B000F9013197F1F70197D9F72D988CE291E08A
:1000C00020E931E0F9013197F1F70197D9F7089567
:1000D000382F6330710501F164307105B1F1623080
:1000E000710509F04AC0452B61F024B181E090E030
:1000F00002C0880F991F3A95E2F78095822384B950
:10010000089524B181E090E002C0880F991F3A95CC
:10011000E2F7282B24B90895452B61F027B181E03F
:1001200090E002C0880F991F3A95E2F780958223EC
:1001300087B9089527B181E090E002C0880F991F28
:100140003A95E2F7282B27B90895452B61F02AB19B
:1001500081E090E002C0880F991F3A95E2F7809500
:1001600082238AB908952AB181E090E002C0880F05
:10017000991F3A95E2F7282B2AB90895282F633062
:10018000710551F06430710589F06230710511F02C
:1001900080E0089583B101C086B190E002C09595DA
:1001A00087952A95E2F780958170089589B190E04E
:1001B00002C0959587952A95E2F7809581700895FC
:1001C000382F6330710501F164307105B1F162308F
:1001D000710509F04AC0452B61F425B181E090E03A
:1001E00002C0880F991F3A95E2F78095822385B95E
:1001F000089525B181E090E002C0880F991F3A95DB
:10020000E2F7282B25B90895452B61F428B181E048
:1002100090E002C0880F991F3A95E2F780958223FB
:1002200088B9089528B181E090E002C0880F991F35
:100230003A95E2F7282B28B90895452B61F42BB1A4
:1002400081E090E002C0880F991F3A95E2F780950F
:1002500082238BB908952BB181E090E002C0880F12
:10026000991F3A95E2F7282B2BB90895382F66236A
:1002700061F027B181E090E002C0880F991F3A95A4
:10028000E2F78095822387B9089527B181E090E055
:1002900002C0880F991F3A95E2F7282B27B90895D5
:1002A0004498459884E061E00E94360185E061E071
:1002B0000E9436010895359902C081E0089586B103
:1002C00082958F70809581700895AF92BF92CF9282
:1002D000DF92EF92FF920F931F93CF93DF93E82E5D
:1002E0002D9A0E945B01882309F087C084E060E0BA
:1002F0000E94360100EC13E0C8010197F1F785E098
:1003000060E00E94360180E897E00197F1F785E010
:1003100061E00E943601C8010197F1F701E010E0A9
:1003200020ECC22E23E0D22E90E8A92E97E0B92E21
:100330008E2D90E0EC01C170D070E0FE03C084E02F
:1003400061E002C084E060E00E943601C6010197CE
:10035000F1F785E060E00E943601C5010197F1F7F1
:1003600085E061E00E943601C6010197F1F7CD2BCF
:1003700029F080E0002309F481E0082F1F5F183086
:1003800011F0E694D5CF002319F084E061E002C0BB
:1003900084E060E00E94360100EC13E0C8010197A0
:1003A000F1F785E060E00E94360180E8E82E87E002
:1003B000F82EC7010197F1F785E061E00E94360150
:1003C000C8010197F1F784E061E00E943601C8019D
:1003D0000197F1F785E060E00E943601C7010197BF
:1003E000F1F785E061E00E943601C8010197F1F75D
:1003F00080E896E10197F1F72D98DF91CF911F9159
:100400000F91FF90EF90DF90CF90BF90AF90089545
:10041000EF92FF920F931F93082FE62EF42E122FC8
:10042000662369F08091BB02882349F4222339F0C6
:100430008091BA010E94650181E08093BB02FF2098
:10044000C1F08091BC02882301F51123F1F0809165
:10045000BB010E94650181E08093BC0216C011239C
:1004600041F4EE2031F082E10E94650181E0809349
:10047000BB02002379F0802F0E946501E02FF0E09D
:10048000E454FE4F81E0808305C08091BB02882345
:1004900031F3EFCF1F910F91FF90EF900895522FFE
:1004A000282F30E070E0D901AA0FBB1FAA0FBB1F95
:1004B000A20FB31FA60FB71FFD01E050FF4F9081A1
:1004C000442359F08091BD02882339F0A85DBE4FC6
:1004D000EC91EE2311F090E002C0E92F91E055235A
:1004E000D1F08091BD028823B1F0D901AA0FBB1FC2
:1004F000AA0FBB1FA20FB31FA60FB71FFD01E8581D
:10050000FE4FE081EE2311F041E004C0A05BBE4F3E
:10051000EC9140E090E08E2F642F452F292F0E9410
:1005200008020895FF920F931F93CF93DF93042F38
:10053000F22E282F30E070E0D901AA0FBB1FAA0FBE
:10054000BB1FA20FB31FA60FB71FFD01E050FF4F47
:1005500010818091BD02882391F1A85DBE4F9C91CE
:10056000E92FF0E0E454FE4F80818111192FF90149
:10057000EE0FFF1FEE0FFF1FE20FF31FE60FF71F37
:10058000E858FE4F9081E92FF0E0E454FE4F80815F
:10059000882309F4912FF901EE0FFF1FEE0FFF1FC3
:1005A000E20FF31FE60FF71FE05BFE4F1081E12F14
:1005B000F0E0E454FE4F8081882309F4192F1123C1
:1005C00071F0C12FD0E0C454DE4F8881882339F008
:1005D00080EF0E946501812F0E9465011882809141
:1005E000BD02882361F08091BB02882341F080EF37
:1005F0000E94650182E10E9465011092BB02002306
:1006000069F48091BB02882349F080EF0E94650164
:100610008091BA010E9465011092BB02FF2069F42B
:100620008091BC02882349F080EF0E94650180918F
:10063000BB010E9465011092BC02DF91CF911F9116
:100640000F91FF9008958091BA010E9465018091F9
:10065000BB010E9465018AE18A95F1F780EF0E9453
:1006600065018091BA010E94650180EF0E946501D9
:100670008091BB010E9465010895DF92EF92FF9285
:100680000F931F93082FF62EE42ED22E662319F017
:1006900082E10E946501EE2019F084E10E9465016B
:1006A000DD2019F081E10E9465011AE1812F8A9510
:1006B000F1F7802F0E9465011A95F1F780EF0E94F3
:1006C0006501802F0E946501FF2031F080EF0E94BC
:1006D000650182E10E946501EE2031F080EF0E9409
:1006E000650184E10E946501DD2031F080EF0E9408
:1006F000650181E10E9465011F910F91FF90EF90CC
:10070000DF9008950F931F93CF93DF93259A2D9831
:10071000C0EAD1E005EA11E0F8016081888190E04B
:1007200070E041E050E00E946800F80161918F01A3
:10073000899190E070E041E050E00E94E000F1E03B
:10074000C53ADF0749F7C0E0D0E0FE01E655FE4FAD
:10075000DE01AE54BE4F6C91808190E070E041E0CC
:1007600050E00E9468002196C830D10571F7DF91F2
:10077000CF911F910F9108956F927F928F929F92C8
:10078000AF92BF92CF92DF92EF92FF920F931F939F
:10079000CF93DF936091B7018091AF0190E070E05B
:1007A00040E050E00E9468008AE18A95F1F760918C
:1007B000A9018091A40190E070E00E94BE00882E03
:1007C000882311F0882483946091B7018091AF0150
:1007D00090E070E041E050E00E9468001AE1812F53
:1007E0008A95F1F76091B9018091B10190E070E0D4
:1007F00040E050E00E9468001A95F1F76091A8016E
:100800008091A30190E070E00E94BE00982E8823A2
:1008100011F0992493941AE1812F8A95F1F7609150
:10082000B9018091B10190E070E041E050E00E9498
:100830006800882011F0992071F42AEAA22E21E0A4
:10084000B22E92EBC92E91E0D92EEE248AE1682EC9
:1008500005E3702E72C16091B2018091AA0190E00F
:1008600070E040E050E00E946800812F8A95F1F727
:100870006091A9018091A40190E070E00E94BE0007
:10088000882311F005E001C000E06091A80180918B
:10089000A30190E070E00E94BE00811106E060912B
:1008A000A7018091A20190E070E00E94BE0081113A
:1008B00004E06091A6018091A10190E070E00E94A7
:1008C000BE0081110CE06091A5018091A00190E033
:1008D00070E00E94BE00811103E06091B20180913E
:1008E000AA0190E070E041E050E00E9468001AE147
:1008F000812F8A95F1F76091B5018091AD0190E06B
:1009000070E040E050E00E9468001A95F1F76091B5
:10091000A5018091A00190E070E00E94BE008111CD
:100920000BE06091A6018091A10190E070E00E942F
:10093000BE00811103E86091A7018091A20190E0BF
:1009400070E00E94BE0081110AE06091A8018091D0
:10095000A30190E070E00E94BE00811101E060916F
:10096000A9018091A40190E070E00E94BE00811175
:1009700009E06091B5018091AD0190E070E041E047
:1009800050E00E9468001AE1812F8A95F1F760918A
:10099000B3018091AB0190E070E040E050E00E9434
:1009A00068001A95F1F76091A9018091A40190E087
:1009B00070E00E94BE00811108E76091A80180915B
:1009C000A30190E070E00E94BE00811107E06091F9
:1009D000A7018091A20190E070E00E94BE008823F0
:1009E00031F003E0EE24E394FF24F39402C0EE24FC
:1009F000FF246091A6018091A10190E070E00E9427
:100A0000BE00882329F001E7EE24E394FF24F39449
:100A10006091A5018091A00190E070E00E94BE006D
:100A2000882329F006E6EE24E394FF24F3946091F2
:100A3000B3018091AB0190E070E041E050E00E9492
:100A400068001AE1812F8A95F1F76091B6018091D3
:100A5000AE0190E070E040E050E00E9468001A951E
:100A6000F1F76091A5018091A00190E070E00E94F3
:100A7000BE0081110EE76091A6018091A10190E076
:100A800070E00E94BE00882321F007E0DD24D394AB
:100A900001C0DD246091A7018091A20190E070E087
:100AA0000E94BE00882329F003E0EE24E394FF2493
:100AB000F3946091A8018091A30190E070E00E94FE
:100AC000BE00882329F001E7EE24E394FF24F39489
:100AD0006091A9018091A40190E070E00E94BE00A5
:100AE000882311F410E00BC08091BD02882319F017
:100AF0001092BD0203C081E08093BD0211E06091BD
:100B0000B6018091AE0190E070E041E050E00E94BB
:100B100068008AE18A95F1F7002339F0802F6D2D66
:100B20004E2D2F2D0E943D0372C0112309F06FC07E
:100B300081E061E00E9423036AC0F6016081F50153
:100B4000808190E070E040E050E00E946800F60193
:100B50006081F501808190E070E040E050E00E940B
:100B6000E000862D8A95F1F700EA11E0C5EAD1E0B0
:100B7000FF246881F801808190E070E00E94BE004F
:100B8000882399F0872D8A95F1F76881F801808193
:100B900090E070E00E94BE00882339F08E2D6F2D0A
:100BA000482D292D0E944F0206C08E2D6F2D482DF5
:100BB000292D0E949202F3940F5F1F4F2196F5E0BA
:100BC000FF16B9F6F60161916F01F50181915F01A0
:100BD00090E070E041E050E00E946800E394F8E0AB
:100BE000EF1609F0AACF6091B7018091AF0190E0B4
:100BF00070E040E050E00E94E0006091B901809117
:100C0000B10190E070E040E050E00E94E00088EE2A
:100C100093E020E931E0F9013197F1F70197D9F735
:100C2000DF91CF911F910F91FF90EF90DF90CF90C8
:100C3000BF90AF909F908F907F906F9008950E948B
:100C400082030E9450010E94BC03FDCFF894FFCFA5
:100C50002E25261E162C2D241D15342B231B1C3649
:100C60003D3E4645353C43444D2A21221A00333B44
:100C7000424B5A32313A00296B0000580D000000F7
:100C800000000000000000727574006600000000A3
:100C900000000000000000000000000000000076DE
:100CA0000000000000000000000000005D000000E7
:100CB00052000000545B004C004A000E0000004E41
:100CC00000550000414900002E25261E164941000E
:100CD00000005B54005D0E3D0046454E00000000E4
:100CE00052004A004C0036005500003E0000000053
:100CF00002030400010202020303020304050607C3
:0C0D0000000104040404040402021214A4
:00000001FF
